{
  "contractName": "Gallery",
  "abi": [
    {
      "inputs": [],
      "stateMutability": "nonpayable",
      "type": "constructor"
    },
    {
      "inputs": [
        {
          "internalType": "uint256",
          "name": "",
          "type": "uint256"
        }
      ],
      "name": "images",
      "outputs": [
        {
          "internalType": "address payable",
          "name": "owner",
          "type": "address"
        },
        {
          "internalType": "string",
          "name": "name",
          "type": "string"
        },
        {
          "internalType": "string",
          "name": "hash",
          "type": "string"
        }
      ],
      "stateMutability": "view",
      "type": "function",
      "constant": true
    },
    {
      "inputs": [
        {
          "internalType": "string",
          "name": "name",
          "type": "string"
        },
        {
          "internalType": "string",
          "name": "hash",
          "type": "string"
        }
      ],
      "name": "uploadImage",
      "outputs": [],
      "stateMutability": "nonpayable",
      "type": "function"
    },
    {
      "inputs": [
        {
          "internalType": "string",
          "name": "imageHash",
          "type": "string"
        }
      ],
      "name": "addProposal",
      "outputs": [],
      "stateMutability": "payable",
      "type": "function",
      "payable": true
    },
    {
      "inputs": [
        {
          "internalType": "string",
          "name": "imageHash",
          "type": "string"
        }
      ],
      "name": "removeProposal",
      "outputs": [],
      "stateMutability": "nonpayable",
      "type": "function"
    },
    {
      "inputs": [
        {
          "internalType": "string",
          "name": "imageHash",
          "type": "string"
        },
        {
          "internalType": "address",
          "name": "proposalOwner",
          "type": "address"
        }
      ],
      "name": "acceptProposal",
      "outputs": [],
      "stateMutability": "nonpayable",
      "type": "function"
    },
    {
      "inputs": [
        {
          "internalType": "string",
          "name": "imageHash",
          "type": "string"
        },
        {
          "internalType": "address",
          "name": "proposalOwner",
          "type": "address"
        }
      ],
      "name": "refuseProposal",
      "outputs": [],
      "stateMutability": "nonpayable",
      "type": "function"
    },
    {
      "inputs": [],
      "name": "destroy",
      "outputs": [],
      "stateMutability": "nonpayable",
      "type": "function"
    }
  ],
  "bytecode": "0x608060405234801561001057600080fd5b5033600160006101000a81548173ffffffffffffffffffffffffffffffffffffffff021916908373ffffffffffffffffffffffffffffffffffffffff1602179055506126ee806100616000396000f3fe6080604052600436106100705760003560e01c806383197ef01161004e57806383197ef0146100e357806384856482146100fa578063a91b831414610139578063bbcbdc611461016257610070565b80632fdae3c51461007557806367d5a2931461009157806375c8042d146100ba575b600080fd5b61008f600480360381019061008a9190611d04565b61018b565b005b34801561009d57600080fd5b506100b860048036038101906100b39190611dab565b610543565b005b3480156100c657600080fd5b506100e160048036038101906100dc9190611dab565b610aca565b005b3480156100ef57600080fd5b506100f8611224565b005b34801561010657600080fd5b50610121600480360381019061011c9190611e3d565b6112ef565b60405161013093929190611f13565b60405180910390f35b34801561014557600080fd5b50610160600480360381019061015b9190611f58565b611459565b005b34801561016e57600080fd5b5061018960048036038101906101849190611d04565b61154c565b005b60005b6000805490508110156104fd57816040516020016101ac919061200c565b60405160208183030381529060405280519060200120600082815481106101d6576101d5612023565b5b90600052602060002090600402016002016040516020016101f79190612147565b6040516020818303038152906040528051906020012014156104ea576000818154811061022757610226612023565b5b906000526020600020906004020160000160009054906101000a900473ffffffffffffffffffffffffffffffffffffffff1673ffffffffffffffffffffffffffffffffffffffff163373ffffffffffffffffffffffffffffffffffffffff16141561029157600080fd5b600034116102d4576040517f08c379a00000000000000000000000000000000000000000000000000000000081526004016102cb906121d0565b60405180910390fd5b60005b600082815481106102eb576102ea612023565b5b90600052602060002090600402016003018054905081101561041157336040516020016103189190612238565b604051602081830303815290604052805190602001206000838154811061034257610341612023565b5b9060005260206000209060040201600301828154811061036557610364612023565b5b906000526020600020906002020160000160009054906101000a900473ffffffffffffffffffffffffffffffffffffffff166040516020016103a7919061227c565b6040516020818303038152906040528051906020012014156103fe576040517f08c379a00000000000000000000000000000000000000000000000000000000081526004016103f590612309565b60405180910390fd5b808061040990612358565b9150506102d7565b50600060405180604001604052803373ffffffffffffffffffffffffffffffffffffffff1681526020013481525090506000828154811061045557610454612023565b5b906000526020600020906004020160030181908060018154018082558091505060019003906000526020600020906002020160009091909190915060008201518160000160006101000a81548173ffffffffffffffffffffffffffffffffffffffff021916908373ffffffffffffffffffffffffffffffffffffffff1602179055506020820151816001015550505050610540565b80806104f590612358565b91505061018e565b50600061053f576040517f08c379a0000000000000000000000000000000000000000000000000000000008152600401610536906123ed565b60405180910390fd5b5b50565b60005b600080549050811015610a835782604051602001610564919061200c565b604051602081830303815290604052805190602001206000828154811061058e5761058d612023565b5b90600052602060002090600402016002016040516020016105af9190612147565b604051602081830303815290604052805190602001201415610a7057600081815481106105df576105de612023565b5b906000526020600020906004020160000160009054906101000a900473ffffffffffffffffffffffffffffffffffffffff1673ffffffffffffffffffffffffffffffffffffffff163373ffffffffffffffffffffffffffffffffffffffff161461067e576040517f08c379a00000000000000000000000000000000000000000000000000000000081526004016106759061247f565b60405180910390fd5b60005b6000828154811061069557610694612023565b5b906000526020600020906004020160030180549050811015610a2d57826040516020016106c29190612238565b60405160208183030381529060405280519060200120600083815481106106ec576106eb612023565b5b9060005260206000209060040201600301828154811061070f5761070e612023565b5b906000526020600020906002020160000160009054906101000a900473ffffffffffffffffffffffffffffffffffffffff16604051602001610751919061227c565b604051602081830303815290604052805190602001201415610a1a576000828154811061078157610780612023565b5b906000526020600020906004020160030181815481106107a4576107a3612023565b5b906000526020600020906002020160000160009054906101000a900473ffffffffffffffffffffffffffffffffffffffff1673ffffffffffffffffffffffffffffffffffffffff166108fc6000848154811061080357610802612023565b5b9060005260206000209060040201600301838154811061082657610825612023565b5b9060005260206000209060020201600101549081150290604051600060405180830381858888f19350505050158015610863573d6000803e3d6000fd5b506000828154811061087857610877612023565b5b906000526020600020906004020160030160016000848154811061089f5761089e612023565b5b9060005260206000209060040201600301805490506108be919061249f565b815481106108cf576108ce612023565b5b9060005260206000209060020201600083815481106108f1576108f0612023565b5b9060005260206000209060040201600301828154811061091457610913612023565b5b90600052602060002090600202016000820160009054906101000a900473ffffffffffffffffffffffffffffffffffffffff168160000160006101000a81548173ffffffffffffffffffffffffffffffffffffffff021916908373ffffffffffffffffffffffffffffffffffffffff16021790555060018201548160010155905050600082815481106109aa576109a9612023565b5b90600052602060002090600402016003018054806109cb576109ca6124d3565b5b6001900381819060005260206000209060020201600080820160006101000a81549073ffffffffffffffffffffffffffffffffffffffff02191690556001820160009055505090555050610ac6565b8080610a2590612358565b915050610681565b506000610a6f576040517f08c379a0000000000000000000000000000000000000000000000000000000008152600401610a6690612574565b60405180910390fd5b5b8080610a7b90612358565b915050610546565b506000610ac5576040517f08c379a0000000000000000000000000000000000000000000000000000000008152600401610abc906123ed565b60405180910390fd5b5b5050565b60005b6000805490508110156111dd5782604051602001610aeb919061200c565b6040516020818303038152906040528051906020012060008281548110610b1557610b14612023565b5b9060005260206000209060040201600201604051602001610b369190612147565b6040516020818303038152906040528051906020012014156111ca5760008181548110610b6657610b65612023565b5b906000526020600020906004020160000160009054906101000a900473ffffffffffffffffffffffffffffffffffffffff1673ffffffffffffffffffffffffffffffffffffffff163373ffffffffffffffffffffffffffffffffffffffff1614610c05576040517f08c379a0000000000000000000000000000000000000000000000000000000008152600401610bfc90612606565b60405180910390fd5b60005b60008281548110610c1c57610c1b612023565b5b9060005260206000209060040201600301805490508110156111875782604051602001610c499190612238565b6040516020818303038152906040528051906020012060008381548110610c7357610c72612023565b5b90600052602060002090600402016003018281548110610c9657610c95612023565b5b906000526020600020906002020160000160009054906101000a900473ffffffffffffffffffffffffffffffffffffffff16604051602001610cd8919061227c565b604051602081830303815290604052805190602001201415611174573373ffffffffffffffffffffffffffffffffffffffff166108fc60008481548110610d2257610d21612023565b5b90600052602060002090600402016003018381548110610d4557610d44612023565b5b9060005260206000209060020201600101549081150290604051600060405180830381858888f19350505050158015610d82573d6000803e3d6000fd5b5060008281548110610d9757610d96612023565b5b90600052602060002090600402016003018181548110610dba57610db9612023565b5b906000526020600020906002020160000160009054906101000a900473ffffffffffffffffffffffffffffffffffffffff1660008381548110610e0057610dff612023565b5b906000526020600020906004020160000160006101000a81548173ffffffffffffffffffffffffffffffffffffffff021916908373ffffffffffffffffffffffffffffffffffffffff16021790555060008281548110610e6357610e62612023565b5b9060005260206000209060040201600301600160008481548110610e8a57610e89612023565b5b906000526020600020906004020160030180549050610ea9919061249f565b81548110610eba57610eb9612023565b5b906000526020600020906002020160008381548110610edc57610edb612023565b5b90600052602060002090600402016003018281548110610eff57610efe612023565b5b90600052602060002090600202016000820160009054906101000a900473ffffffffffffffffffffffffffffffffffffffff168160000160006101000a81548173ffffffffffffffffffffffffffffffffffffffff021916908373ffffffffffffffffffffffffffffffffffffffff1602179055506001820154816001015590505060008281548110610f9557610f94612023565b5b9060005260206000209060040201600301805480610fb657610fb56124d3565b5b6001900381819060005260206000209060020201600080820160006101000a81549073ffffffffffffffffffffffffffffffffffffffff021916905560018201600090555050905560005b6000838154811061101557611014612023565b5b90600052602060002090600402016003018054905081101561113b576000838154811061104557611044612023565b5b9060005260206000209060040201600301818154811061106857611067612023565b5b906000526020600020906002020160000160009054906101000a900473ffffffffffffffffffffffffffffffffffffffff1673ffffffffffffffffffffffffffffffffffffffff166108fc600085815481106110c7576110c6612023565b5b906000526020600020906004020160030183815481106110ea576110e9612023565b5b9060005260206000209060020201600101549081150290604051600060405180830381858888f19350505050158015611127573d6000803e3d6000fd5b50808061113390612358565b915050611001565b50600082815481106111505761114f612023565b5b9060005260206000209060040201600301600061116d9190611a9d565b5050611220565b808061117f90612358565b915050610c08565b5060006111c9576040517f08c379a00000000000000000000000000000000000000000000000000000000081526004016111c090612574565b60405180910390fd5b5b80806111d590612358565b915050610acd565b50600061121f576040517f08c379a0000000000000000000000000000000000000000000000000000000008152600401611216906123ed565b60405180910390fd5b5b5050565b600160009054906101000a900473ffffffffffffffffffffffffffffffffffffffff1673ffffffffffffffffffffffffffffffffffffffff163373ffffffffffffffffffffffffffffffffffffffff16146112b4576040517f08c379a00000000000000000000000000000000000000000000000000000000081526004016112ab90612698565b60405180910390fd5b600160009054906101000a900473ffffffffffffffffffffffffffffffffffffffff1673ffffffffffffffffffffffffffffffffffffffff16ff5b600081815481106112ff57600080fd5b90600052602060002090600402016000915090508060000160009054906101000a900473ffffffffffffffffffffffffffffffffffffffff169080600101805461134890612081565b80601f016020809104026020016040519081016040528092919081815260200182805461137490612081565b80156113c15780601f10611396576101008083540402835291602001916113c1565b820191906000526020600020905b8154815290600101906020018083116113a457829003601f168201915b5050505050908060020180546113d690612081565b80601f016020809104026020016040519081016040528092919081815260200182805461140290612081565b801561144f5780601f106114245761010080835404028352916020019161144f565b820191906000526020600020905b81548152906001019060200180831161143257829003601f168201915b5050505050905083565b600082511161146757600080fd5b600081511161147557600080fd5b600073ffffffffffffffffffffffffffffffffffffffff163373ffffffffffffffffffffffffffffffffffffffff1614156114af57600080fd5b6000806001816001815401808255809150500390600052602060002090600402019050338160000160006101000a81548173ffffffffffffffffffffffffffffffffffffffff021916908373ffffffffffffffffffffffffffffffffffffffff1602179055508281600101908051906020019061152d929190611ac1565b5081816002019080519060200190611546929190611ac1565b50505050565b60005b600080549050811015611a57578160405160200161156d919061200c565b604051602081830303815290604052805190602001206000828154811061159757611596612023565b5b90600052602060002090600402016002016040516020016115b89190612147565b604051602081830303815290604052805190602001201415611a4457600081815481106115e8576115e7612023565b5b906000526020600020906004020160000160009054906101000a900473ffffffffffffffffffffffffffffffffffffffff1673ffffffffffffffffffffffffffffffffffffffff163373ffffffffffffffffffffffffffffffffffffffff16141561165257600080fd5b60005b6000828154811061166957611668612023565b5b906000526020600020906004020160030180549050811015611a0157336040516020016116969190612238565b60405160208183030381529060405280519060200120600083815481106116c0576116bf612023565b5b906000526020600020906004020160030182815481106116e3576116e2612023565b5b906000526020600020906002020160000160009054906101000a900473ffffffffffffffffffffffffffffffffffffffff16604051602001611725919061227c565b6040516020818303038152906040528051906020012014156119ee576000828154811061175557611754612023565b5b9060005260206000209060040201600301818154811061177857611777612023565b5b906000526020600020906002020160000160009054906101000a900473ffffffffffffffffffffffffffffffffffffffff1673ffffffffffffffffffffffffffffffffffffffff166108fc600084815481106117d7576117d6612023565b5b906000526020600020906004020160030183815481106117fa576117f9612023565b5b9060005260206000209060020201600101549081150290604051600060405180830381858888f19350505050158015611837573d6000803e3d6000fd5b506000828154811061184c5761184b612023565b5b906000526020600020906004020160030160016000848154811061187357611872612023565b5b906000526020600020906004020160030180549050611892919061249f565b815481106118a3576118a2612023565b5b9060005260206000209060020201600083815481106118c5576118c4612023565b5b906000526020600020906004020160030182815481106118e8576118e7612023565b5b90600052602060002090600202016000820160009054906101000a900473ffffffffffffffffffffffffffffffffffffffff168160000160006101000a81548173ffffffffffffffffffffffffffffffffffffffff021916908373ffffffffffffffffffffffffffffffffffffffff160217905550600182015481600101559050506000828154811061197e5761197d612023565b5b906000526020600020906004020160030180548061199f5761199e6124d3565b5b6001900381819060005260206000209060020201600080820160006101000a81549073ffffffffffffffffffffffffffffffffffffffff02191690556001820160009055505090555050611a9a565b80806119f990612358565b915050611655565b506000611a43576040517f08c379a0000000000000000000000000000000000000000000000000000000008152600401611a3a90612574565b60405180910390fd5b5b8080611a4f90612358565b91505061154f565b506000611a99576040517f08c379a0000000000000000000000000000000000000000000000000000000008152600401611a90906123ed565b60405180910390fd5b5b50565b5080546000825560020290600052602060002090810190611abe9190611b47565b50565b828054611acd90612081565b90600052602060002090601f016020900481019282611aef5760008555611b36565b82601f10611b0857805160ff1916838001178555611b36565b82800160010185558215611b36579182015b82811115611b35578251825591602001919060010190611b1a565b5b509050611b439190611b8d565b5090565b5b80821115611b8957600080820160006101000a81549073ffffffffffffffffffffffffffffffffffffffff0219169055600182016000905550600201611b48565b5090565b5b80821115611ba6576000816000905550600101611b8e565b5090565b6000604051905090565b600080fd5b600080fd5b600080fd5b600080fd5b6000601f19601f8301169050919050565b7f4e487b7100000000000000000000000000000000000000000000000000000000600052604160045260246000fd5b611c1182611bc8565b810181811067ffffffffffffffff82111715611c3057611c2f611bd9565b5b80604052505050565b6000611c43611baa565b9050611c4f8282611c08565b919050565b600067ffffffffffffffff821115611c6f57611c6e611bd9565b5b611c7882611bc8565b9050602081019050919050565b82818337600083830152505050565b6000611ca7611ca284611c54565b611c39565b905082815260208101848484011115611cc357611cc2611bc3565b5b611cce848285611c85565b509392505050565b600082601f830112611ceb57611cea611bbe565b5b8135611cfb848260208601611c94565b91505092915050565b600060208284031215611d1a57611d19611bb4565b5b600082013567ffffffffffffffff811115611d3857611d37611bb9565b5b611d4484828501611cd6565b91505092915050565b600073ffffffffffffffffffffffffffffffffffffffff82169050919050565b6000611d7882611d4d565b9050919050565b611d8881611d6d565b8114611d9357600080fd5b50565b600081359050611da581611d7f565b92915050565b60008060408385031215611dc257611dc1611bb4565b5b600083013567ffffffffffffffff811115611de057611ddf611bb9565b5b611dec85828601611cd6565b9250506020611dfd85828601611d96565b9150509250929050565b6000819050919050565b611e1a81611e07565b8114611e2557600080fd5b50565b600081359050611e3781611e11565b92915050565b600060208284031215611e5357611e52611bb4565b5b6000611e6184828501611e28565b91505092915050565b6000611e7582611d4d565b9050919050565b611e8581611e6a565b82525050565b600081519050919050565b600082825260208201905092915050565b60005b83811015611ec5578082015181840152602081019050611eaa565b83811115611ed4576000848401525b50505050565b6000611ee582611e8b565b611eef8185611e96565b9350611eff818560208601611ea7565b611f0881611bc8565b840191505092915050565b6000606082019050611f286000830186611e7c565b8181036020830152611f3a8185611eda565b90508181036040830152611f4e8184611eda565b9050949350505050565b60008060408385031215611f6f57611f6e611bb4565b5b600083013567ffffffffffffffff811115611f8d57611f8c611bb9565b5b611f9985828601611cd6565b925050602083013567ffffffffffffffff811115611fba57611fb9611bb9565b5b611fc685828601611cd6565b9150509250929050565b600081905092915050565b6000611fe682611e8b565b611ff08185611fd0565b9350612000818560208601611ea7565b80840191505092915050565b60006120188284611fdb565b915081905092915050565b7f4e487b7100000000000000000000000000000000000000000000000000000000600052603260045260246000fd5b7f4e487b7100000000000000000000000000000000000000000000000000000000600052602260045260246000fd5b6000600282049050600182168061209957607f821691505b602082108114156120ad576120ac612052565b5b50919050565b60008190508160005260206000209050919050565b600081546120d581612081565b6120df8186611fd0565b945060018216600081146120fa576001811461210b5761213e565b60ff1983168652818601935061213e565b612114856120b3565b60005b8381101561213657815481890152600182019150602081019050612117565b838801955050505b50505092915050565b600061215382846120c8565b915081905092915050565b7f50726f706f73616c206d7573742068617665206120706f73697469766520707260008201527f6963650000000000000000000000000000000000000000000000000000000000602082015250565b60006121ba602383611e96565b91506121c58261215e565b604082019050919050565b600060208201905081810360008301526121e9816121ad565b9050919050565b60008160601b9050919050565b6000612208826121f0565b9050919050565b600061221a826121fd565b9050919050565b61223261222d82611d6d565b61220f565b82525050565b60006122448284612221565b60148201915081905092915050565b600061225e826121fd565b9050919050565b61227661227182611e6a565b612253565b82525050565b60006122888284612265565b60148201915081905092915050565b7f596f7520616c72656164792073656e7420612070726f706f73616c20666f722060008201527f7468697320696d61676500000000000000000000000000000000000000000000602082015250565b60006122f3602a83611e96565b91506122fe82612297565b604082019050919050565b60006020820190508181036000830152612322816122e6565b9050919050565b7f4e487b7100000000000000000000000000000000000000000000000000000000600052601160045260246000fd5b600061236382611e07565b91507fffffffffffffffffffffffffffffffffffffffffffffffffffffffffffffffff82141561239657612395612329565b5b600182019050919050565b7f496d616765206e6f7420666f756e640000000000000000000000000000000000600082015250565b60006123d7600f83611e96565b91506123e2826123a1565b602082019050919050565b60006020820190508181036000830152612406816123ca565b9050919050565b7f4f6e6c7920746865206f776e65722063616e207265667573652070726f706f7360008201527f616c730000000000000000000000000000000000000000000000000000000000602082015250565b6000612469602383611e96565b91506124748261240d565b604082019050919050565b600060208201905081810360008301526124988161245c565b9050919050565b60006124aa82611e07565b91506124b583611e07565b9250828210156124c8576124c7612329565b5b828203905092915050565b7f4e487b7100000000000000000000000000000000000000000000000000000000600052603160045260246000fd5b7f50726f706f73616c206e6f7420666f756e6420666f72207468697320696d616760008201527f6500000000000000000000000000000000000000000000000000000000000000602082015250565b600061255e602183611e96565b915061256982612502565b604082019050919050565b6000602082019050818103600083015261258d81612551565b9050919050565b7f4f6e6c7920746865206f776e65722063616e206163636570742070726f706f7360008201527f616c730000000000000000000000000000000000000000000000000000000000602082015250565b60006125f0602383611e96565b91506125fb82612594565b604082019050919050565b6000602082019050818103600083015261261f816125e3565b9050919050565b7f4f6e6c7920746865206f776e65722063616e2064657374726f7920746865206360008201527f6f6e747261637400000000000000000000000000000000000000000000000000602082015250565b6000612682602783611e96565b915061268d82612626565b604082019050919050565b600060208201905081810360008301526126b181612675565b905091905056fea26469706673582212202d482a56af2b4d7d5d49240256e4c3e9397adae9a577b3f34b72efc873ea750064736f6c634300080b0033",
  "immutableReferences": {},
  "source": "// SPDX-License-Identifier: MIT\n// Nome: Joo Vtor Souto dos Santos\n// Nome: Rafael Silva Freire\n// Conta do contrato: 0x000000\n\n// Seu contrato comea aqui!\npragma solidity ^0.8.11;\n\ncontract Gallery {\n    struct Proposal {\n        address payable owner;\n        uint256 price;\n    }\n\n    struct Image {\n        address payable owner;\n        string name;\n        string hash;\n        Proposal[] proposals;\n    }\n\n    Image[] public images;\n    address payable owner;\n\n    constructor() {\n        owner = payable(msg.sender);\n    }\n\n    function uploadImage(string memory name, string memory hash) public {\n        require(bytes(name).length > 0);\n        require(bytes(hash).length > 0);\n        require(msg.sender != address(0));\n\n        Image storage image = images.push();\n        image.owner = payable(msg.sender);\n        image.name = name;\n        image.hash = hash;\n    }\n\n    function addProposal(string memory imageHash) public payable {\n        for (uint256 i = 0; i < images.length; i++) {\n            if (\n                keccak256(abi.encodePacked(images[i].hash)) ==\n                keccak256(abi.encodePacked(imageHash))\n            ) {\n                require(msg.sender != images[i].owner);\n                require(msg.value > 0, \"Proposal must have a positive price\");\n\n                for (uint256 j = 0; j < images[i].proposals.length; j++) {\n                    require(\n                        keccak256(\n                            abi.encodePacked(images[i].proposals[j].owner)\n                        ) != keccak256(abi.encodePacked(msg.sender)),\n                        \"You already sent a proposal for this image\"\n                    );\n                }\n\n                Proposal memory proposal = Proposal(\n                    payable(msg.sender),\n                    msg.value\n                );\n                images[i].proposals.push(proposal);\n\n                return;\n            }\n        }\n\n        require(false, \"Image not found\");\n    }\n\n    function removeProposal(string memory imageHash) public {\n        for (uint256 i = 0; i < images.length; i++) {\n            if (\n                keccak256(abi.encodePacked(images[i].hash)) ==\n                keccak256(abi.encodePacked(imageHash))\n            ) {\n                require(msg.sender != images[i].owner);\n\n                for (uint256 j = 0; j < images[i].proposals.length; j++) {\n                    if (\n                        keccak256(\n                            abi.encodePacked(images[i].proposals[j].owner)\n                        ) == keccak256(abi.encodePacked(msg.sender))\n                    ) {\n                        images[i].proposals[j].owner.transfer(\n                            images[i].proposals[j].price\n                        );\n                        images[i].proposals[j] = images[i].proposals[\n                            images[i].proposals.length - 1\n                        ];\n                        images[i].proposals.pop();\n                        return;\n                    }\n                }\n\n                require(false, \"Proposal not found for this image\");\n            }\n        }\n\n        require(false, \"Image not found\");\n    }\n\n    function acceptProposal(string memory imageHash, address proposalOwner)\n        public\n    {\n        for (uint256 i = 0; i < images.length; i++) {\n            if (\n                keccak256(abi.encodePacked(images[i].hash)) ==\n                keccak256(abi.encodePacked(imageHash))\n            ) {\n                require(\n                    msg.sender == images[i].owner,\n                    \"Only the owner can accept proposals\"\n                );\n\n                for (uint256 j = 0; j < images[i].proposals.length; j++) {\n                    if (\n                        keccak256(\n                            abi.encodePacked(images[i].proposals[j].owner)\n                        ) == keccak256(abi.encodePacked(proposalOwner))\n                    ) {\n                        payable(msg.sender).transfer(\n                            images[i].proposals[j].price\n                        );\n                        images[i].owner = images[i].proposals[j].owner;\n                        images[i].proposals[j] = images[i].proposals[\n                            images[i].proposals.length - 1\n                        ];\n                        images[i].proposals.pop();\n\n                        for (\n                            uint256 k = 0;\n                            k < images[i].proposals.length;\n                            k++\n                        ) {\n                            images[i].proposals[k].owner.transfer(\n                                images[i].proposals[k].price\n                            );\n                        }\n\n                        delete images[i].proposals;\n\n                        return;\n                    }\n                }\n\n                require(false, \"Proposal not found for this image\");\n            }\n        }\n\n        require(false, \"Image not found\");\n    }\n\n    function refuseProposal(string memory imageHash, address proposalOwner)\n        public\n    {\n        for (uint256 i = 0; i < images.length; i++) {\n            if (\n                keccak256(abi.encodePacked(images[i].hash)) ==\n                keccak256(abi.encodePacked(imageHash))\n            ) {\n                require(\n                    msg.sender == images[i].owner,\n                    \"Only the owner can refuse proposals\"\n                );\n\n                for (uint256 j = 0; j < images[i].proposals.length; j++) {\n                    if (\n                        keccak256(\n                            abi.encodePacked(images[i].proposals[j].owner)\n                        ) == keccak256(abi.encodePacked(proposalOwner))\n                    ) {\n                        images[i].proposals[j].owner.transfer(\n                            images[i].proposals[j].price\n                        );\n                        images[i].proposals[j] = images[i].proposals[\n                            images[i].proposals.length - 1\n                        ];\n                        images[i].proposals.pop();\n                        return;\n                    }\n                }\n\n                require(false, \"Proposal not found for this image\");\n            }\n        }\n\n        require(false, \"Image not found\");\n    }\n\n    function destroy() public {\n        require(msg.sender == owner, \"Only the owner can destroy the contract\");\n\n        selfdestruct(owner);\n    }\n}\n",
  "sourcePath": "/home/jv/Documents/BTI/6 Perodo/Blockchain/social-gallery-auction/src/contracts/Gallery.sol",
  "compiler": {
    "name": "solc",
    "version": "0.8.11+commit.d7f03943.Emscripten.clang"
  },
  "schemaVersion": "3.4.3",
  "updatedAt": "2022-02-04T01:41:26.006Z",
  "networkType": "ethereum",
  "devdoc": {
    "kind": "dev",
    "methods": {},
    "version": 1
  },
  "userdoc": {
    "kind": "user",
    "methods": {},
    "version": 1
  }
}