{
  "contractName": "Gallery",
  "abi": [
    {
      "inputs": [],
      "stateMutability": "nonpayable",
      "type": "constructor"
    },
    {
      "anonymous": false,
      "inputs": [
        {
          "components": [
            {
              "internalType": "address payable",
              "name": "owner",
              "type": "address"
            },
            {
              "internalType": "string",
              "name": "name",
              "type": "string"
            },
            {
              "internalType": "string",
              "name": "hash",
              "type": "string"
            },
            {
              "components": [
                {
                  "internalType": "address payable",
                  "name": "owner",
                  "type": "address"
                },
                {
                  "internalType": "uint256",
                  "name": "price",
                  "type": "uint256"
                }
              ],
              "internalType": "struct Gallery.Proposal[]",
              "name": "proposals",
              "type": "tuple[]"
            }
          ],
          "indexed": false,
          "internalType": "struct Gallery.Image",
          "name": "image",
          "type": "tuple"
        }
      ],
      "name": "ImageUploaded",
      "type": "event"
    },
    {
      "inputs": [
        {
          "internalType": "uint256",
          "name": "",
          "type": "uint256"
        }
      ],
      "name": "images",
      "outputs": [
        {
          "internalType": "address payable",
          "name": "owner",
          "type": "address"
        },
        {
          "internalType": "string",
          "name": "name",
          "type": "string"
        },
        {
          "internalType": "string",
          "name": "hash",
          "type": "string"
        }
      ],
      "stateMutability": "view",
      "type": "function",
      "constant": true
    },
    {
      "inputs": [],
      "name": "getProposalsByOwner",
      "outputs": [
        {
          "components": [
            {
              "internalType": "address payable",
              "name": "owner",
              "type": "address"
            },
            {
              "internalType": "uint256",
              "name": "price",
              "type": "uint256"
            },
            {
              "internalType": "string",
              "name": "hash",
              "type": "string"
            },
            {
              "internalType": "string",
              "name": "name",
              "type": "string"
            }
          ],
          "internalType": "struct Gallery.ProposalImage[]",
          "name": "",
          "type": "tuple[]"
        }
      ],
      "stateMutability": "view",
      "type": "function",
      "constant": true
    },
    {
      "inputs": [],
      "name": "getImages",
      "outputs": [
        {
          "components": [
            {
              "internalType": "address payable",
              "name": "owner",
              "type": "address"
            },
            {
              "internalType": "string",
              "name": "name",
              "type": "string"
            },
            {
              "internalType": "string",
              "name": "hash",
              "type": "string"
            },
            {
              "components": [
                {
                  "internalType": "address payable",
                  "name": "owner",
                  "type": "address"
                },
                {
                  "internalType": "uint256",
                  "name": "price",
                  "type": "uint256"
                }
              ],
              "internalType": "struct Gallery.Proposal[]",
              "name": "proposals",
              "type": "tuple[]"
            }
          ],
          "internalType": "struct Gallery.Image[]",
          "name": "",
          "type": "tuple[]"
        }
      ],
      "stateMutability": "view",
      "type": "function",
      "constant": true
    },
    {
      "inputs": [
        {
          "internalType": "string",
          "name": "name",
          "type": "string"
        },
        {
          "internalType": "string",
          "name": "hash",
          "type": "string"
        }
      ],
      "name": "uploadImage",
      "outputs": [],
      "stateMutability": "nonpayable",
      "type": "function"
    },
    {
      "inputs": [
        {
          "internalType": "string",
          "name": "imageHash",
          "type": "string"
        }
      ],
      "name": "addProposal",
      "outputs": [],
      "stateMutability": "payable",
      "type": "function",
      "payable": true
    },
    {
      "inputs": [
        {
          "internalType": "string",
          "name": "imageHash",
          "type": "string"
        }
      ],
      "name": "removeProposal",
      "outputs": [],
      "stateMutability": "nonpayable",
      "type": "function"
    },
    {
      "inputs": [
        {
          "internalType": "string",
          "name": "imageHash",
          "type": "string"
        },
        {
          "internalType": "address",
          "name": "proposalOwner",
          "type": "address"
        }
      ],
      "name": "acceptProposal",
      "outputs": [],
      "stateMutability": "nonpayable",
      "type": "function"
    },
    {
      "inputs": [
        {
          "internalType": "string",
          "name": "imageHash",
          "type": "string"
        },
        {
          "internalType": "address",
          "name": "proposalOwner",
          "type": "address"
        }
      ],
      "name": "refuseProposal",
      "outputs": [],
      "stateMutability": "nonpayable",
      "type": "function"
    },
    {
      "inputs": [],
      "name": "destroy",
      "outputs": [],
      "stateMutability": "nonpayable",
      "type": "function"
    }
  ],
  "bytecode": "0x608060405234801561001057600080fd5b5033600160006101000a81548173ffffffffffffffffffffffffffffffffffffffff021916908373ffffffffffffffffffffffffffffffffffffffff160217905550613714806100616000396000f3fe6080604052600436106100865760003560e01c806375c8042d1161005957806375c8042d1461012657806383197ef01461014f5780638485648214610166578063a91b8314146101a5578063bbcbdc61146101ce57610086565b8063114983341461008b57806316bb377c146100b65780632fdae3c5146100e157806367d5a293146100fd575b600080fd5b34801561009757600080fd5b506100a06101f7565b6040516100ad91906127b8565b60405180910390f35b3480156100c257600080fd5b506100cb61048f565b6040516100d89190612906565b60405180910390f35b6100fb60048036038101906100f69190612a71565b610942565b005b34801561010957600080fd5b50610124600480360381019061011f9190612af8565b610cfa565b005b34801561013257600080fd5b5061014d60048036038101906101489190612af8565b611281565b005b34801561015b57600080fd5b506101646119db565b005b34801561017257600080fd5b5061018d60048036038101906101889190612b80565b611aa6565b60405161019c93929190612c06565b60405180910390f35b3480156101b157600080fd5b506101cc60048036038101906101c79190612c4b565b611c10565b005b3480156101da57600080fd5b506101f560048036038101906101f09190612a71565b611e18565b005b60606000805480602002602001604051908101604052809291908181526020016000905b8282101561048657838290600052602060002090600402016040518060800160405290816000820160009054906101000a900473ffffffffffffffffffffffffffffffffffffffff1673ffffffffffffffffffffffffffffffffffffffff1673ffffffffffffffffffffffffffffffffffffffff1681526020016001820180546102a490612cf2565b80601f01602080910402602001604051908101604052809291908181526020018280546102d090612cf2565b801561031d5780601f106102f25761010080835404028352916020019161031d565b820191906000526020600020905b81548152906001019060200180831161030057829003601f168201915b5050505050815260200160028201805461033690612cf2565b80601f016020809104026020016040519081016040528092919081815260200182805461036290612cf2565b80156103af5780601f10610384576101008083540402835291602001916103af565b820191906000526020600020905b81548152906001019060200180831161039257829003601f168201915b5050505050815260200160038201805480602002602001604051908101604052809291908181526020016000905b8282101561046f57838290600052602060002090600202016040518060400160405290816000820160009054906101000a900473ffffffffffffffffffffffffffffffffffffffff1673ffffffffffffffffffffffffffffffffffffffff1673ffffffffffffffffffffffffffffffffffffffff168152602001600182015481525050815260200190600101906103dd565b50505050815250508152602001906001019061021b565b50505050905090565b606060008060005b60008054905081101561056757600081815481106104b8576104b7612d24565b5b906000526020600020906004020160000160009054906101000a900473ffffffffffffffffffffffffffffffffffffffff1673ffffffffffffffffffffffffffffffffffffffff163373ffffffffffffffffffffffffffffffffffffffff161415610554576000818154811061053157610530612d24565b5b906000526020600020906004020160030180549050836105519190612d82565b92505b808061055f90612dd8565b915050610497565b5060008267ffffffffffffffff81111561058457610583612946565b5b6040519080825280602002602001820160405280156105bd57816020015b6105aa612369565b8152602001906001900390816105a25790505b50905060005b60008054905081101561093857600081815481106105e4576105e3612d24565b5b906000526020600020906004020160000160009054906101000a900473ffffffffffffffffffffffffffffffffffffffff1673ffffffffffffffffffffffffffffffffffffffff163373ffffffffffffffffffffffffffffffffffffffff1614156109255760005b600082815481106106605761065f612d24565b5b90600052602060002090600402016003018054905081101561092357610684612369565b6000838154811061069857610697612d24565b5b906000526020600020906004020160030182815481106106bb576106ba612d24565b5b906000526020600020906002020160000160009054906101000a900473ffffffffffffffffffffffffffffffffffffffff16816000019073ffffffffffffffffffffffffffffffffffffffff16908173ffffffffffffffffffffffffffffffffffffffff16815250506000838154811061073857610737612d24565b5b9060005260206000209060040201600301828154811061075b5761075a612d24565b5b9060005260206000209060020201600101548160200181815250506000838154811061078a57610789612d24565b5b906000526020600020906004020160020180546107a690612cf2565b80601f01602080910402602001604051908101604052809291908181526020018280546107d290612cf2565b801561081f5780601f106107f45761010080835404028352916020019161081f565b820191906000526020600020905b81548152906001019060200180831161080257829003601f168201915b50505050508160400181905250600083815481106108405761083f612d24565b5b9060005260206000209060040201600101805461085c90612cf2565b80601f016020809104026020016040519081016040528092919081815260200182805461088890612cf2565b80156108d55780601f106108aa576101008083540402835291602001916108d5565b820191906000526020600020905b8154815290600101906020018083116108b857829003601f168201915b50505050508160600181905250808486815181106108f6576108f5612d24565b5b6020026020010181905250848061090c90612dd8565b95505050808061091b90612dd8565b91505061064c565b505b808061093090612dd8565b9150506105c3565b5080935050505090565b60005b600080549050811015610cb457816040516020016109639190612e5d565b604051602081830303815290604052805190602001206000828154811061098d5761098c612d24565b5b90600052602060002090600402016002016040516020016109ae9190612f08565b604051602081830303815290604052805190602001201415610ca157600081815481106109de576109dd612d24565b5b906000526020600020906004020160000160009054906101000a900473ffffffffffffffffffffffffffffffffffffffff1673ffffffffffffffffffffffffffffffffffffffff163373ffffffffffffffffffffffffffffffffffffffff161415610a4857600080fd5b60003411610a8b576040517f08c379a0000000000000000000000000000000000000000000000000000000008152600401610a8290612f91565b60405180910390fd5b60005b60008281548110610aa257610aa1612d24565b5b906000526020600020906004020160030180549050811015610bc85733604051602001610acf9190612ff9565b6040516020818303038152906040528051906020012060008381548110610af957610af8612d24565b5b90600052602060002090600402016003018281548110610b1c57610b1b612d24565b5b906000526020600020906002020160000160009054906101000a900473ffffffffffffffffffffffffffffffffffffffff16604051602001610b5e919061303d565b604051602081830303815290604052805190602001201415610bb5576040517f08c379a0000000000000000000000000000000000000000000000000000000008152600401610bac906130ca565b60405180910390fd5b8080610bc090612dd8565b915050610a8e565b50600060405180604001604052803373ffffffffffffffffffffffffffffffffffffffff16815260200134815250905060008281548110610c0c57610c0b612d24565b5b906000526020600020906004020160030181908060018154018082558091505060019003906000526020600020906002020160009091909190915060008201518160000160006101000a81548173ffffffffffffffffffffffffffffffffffffffff021916908373ffffffffffffffffffffffffffffffffffffffff1602179055506020820151816001015550505050610cf7565b8080610cac90612dd8565b915050610945565b506000610cf6576040517f08c379a0000000000000000000000000000000000000000000000000000000008152600401610ced90613136565b60405180910390fd5b5b50565b60005b60008054905081101561123a5782604051602001610d1b9190612e5d565b6040516020818303038152906040528051906020012060008281548110610d4557610d44612d24565b5b9060005260206000209060040201600201604051602001610d669190612f08565b6040516020818303038152906040528051906020012014156112275760008181548110610d9657610d95612d24565b5b906000526020600020906004020160000160009054906101000a900473ffffffffffffffffffffffffffffffffffffffff1673ffffffffffffffffffffffffffffffffffffffff163373ffffffffffffffffffffffffffffffffffffffff1614610e35576040517f08c379a0000000000000000000000000000000000000000000000000000000008152600401610e2c906131c8565b60405180910390fd5b60005b60008281548110610e4c57610e4b612d24565b5b9060005260206000209060040201600301805490508110156111e45782604051602001610e799190612ff9565b6040516020818303038152906040528051906020012060008381548110610ea357610ea2612d24565b5b90600052602060002090600402016003018281548110610ec657610ec5612d24565b5b906000526020600020906002020160000160009054906101000a900473ffffffffffffffffffffffffffffffffffffffff16604051602001610f08919061303d565b6040516020818303038152906040528051906020012014156111d15760008281548110610f3857610f37612d24565b5b90600052602060002090600402016003018181548110610f5b57610f5a612d24565b5b906000526020600020906002020160000160009054906101000a900473ffffffffffffffffffffffffffffffffffffffff1673ffffffffffffffffffffffffffffffffffffffff166108fc60008481548110610fba57610fb9612d24565b5b90600052602060002090600402016003018381548110610fdd57610fdc612d24565b5b9060005260206000209060020201600101549081150290604051600060405180830381858888f1935050505015801561101a573d6000803e3d6000fd5b506000828154811061102f5761102e612d24565b5b906000526020600020906004020160030160016000848154811061105657611055612d24565b5b90600052602060002090600402016003018054905061107591906131e8565b8154811061108657611085612d24565b5b9060005260206000209060020201600083815481106110a8576110a7612d24565b5b906000526020600020906004020160030182815481106110cb576110ca612d24565b5b90600052602060002090600202016000820160009054906101000a900473ffffffffffffffffffffffffffffffffffffffff168160000160006101000a81548173ffffffffffffffffffffffffffffffffffffffff021916908373ffffffffffffffffffffffffffffffffffffffff160217905550600182015481600101559050506000828154811061116157611160612d24565b5b90600052602060002090600402016003018054806111825761118161321c565b5b6001900381819060005260206000209060020201600080820160006101000a81549073ffffffffffffffffffffffffffffffffffffffff0219169055600182016000905550509055505061127d565b80806111dc90612dd8565b915050610e38565b506000611226576040517f08c379a000000000000000000000000000000000000000000000000000000000815260040161121d906132bd565b60405180910390fd5b5b808061123290612dd8565b915050610cfd565b50600061127c576040517f08c379a000000000000000000000000000000000000000000000000000000000815260040161127390613136565b60405180910390fd5b5b5050565b60005b60008054905081101561199457826040516020016112a29190612e5d565b60405160208183030381529060405280519060200120600082815481106112cc576112cb612d24565b5b90600052602060002090600402016002016040516020016112ed9190612f08565b604051602081830303815290604052805190602001201415611981576000818154811061131d5761131c612d24565b5b906000526020600020906004020160000160009054906101000a900473ffffffffffffffffffffffffffffffffffffffff1673ffffffffffffffffffffffffffffffffffffffff163373ffffffffffffffffffffffffffffffffffffffff16146113bc576040517f08c379a00000000000000000000000000000000000000000000000000000000081526004016113b39061334f565b60405180910390fd5b60005b600082815481106113d3576113d2612d24565b5b90600052602060002090600402016003018054905081101561193e57826040516020016114009190612ff9565b604051602081830303815290604052805190602001206000838154811061142a57611429612d24565b5b9060005260206000209060040201600301828154811061144d5761144c612d24565b5b906000526020600020906002020160000160009054906101000a900473ffffffffffffffffffffffffffffffffffffffff1660405160200161148f919061303d565b60405160208183030381529060405280519060200120141561192b573373ffffffffffffffffffffffffffffffffffffffff166108fc600084815481106114d9576114d8612d24565b5b906000526020600020906004020160030183815481106114fc576114fb612d24565b5b9060005260206000209060020201600101549081150290604051600060405180830381858888f19350505050158015611539573d6000803e3d6000fd5b506000828154811061154e5761154d612d24565b5b9060005260206000209060040201600301818154811061157157611570612d24565b5b906000526020600020906002020160000160009054906101000a900473ffffffffffffffffffffffffffffffffffffffff16600083815481106115b7576115b6612d24565b5b906000526020600020906004020160000160006101000a81548173ffffffffffffffffffffffffffffffffffffffff021916908373ffffffffffffffffffffffffffffffffffffffff1602179055506000828154811061161a57611619612d24565b5b906000526020600020906004020160030160016000848154811061164157611640612d24565b5b90600052602060002090600402016003018054905061166091906131e8565b8154811061167157611670612d24565b5b90600052602060002090600202016000838154811061169357611692612d24565b5b906000526020600020906004020160030182815481106116b6576116b5612d24565b5b90600052602060002090600202016000820160009054906101000a900473ffffffffffffffffffffffffffffffffffffffff168160000160006101000a81548173ffffffffffffffffffffffffffffffffffffffff021916908373ffffffffffffffffffffffffffffffffffffffff160217905550600182015481600101559050506000828154811061174c5761174b612d24565b5b906000526020600020906004020160030180548061176d5761176c61321c565b5b6001900381819060005260206000209060020201600080820160006101000a81549073ffffffffffffffffffffffffffffffffffffffff021916905560018201600090555050905560005b600083815481106117cc576117cb612d24565b5b9060005260206000209060040201600301805490508110156118f257600083815481106117fc576117fb612d24565b5b9060005260206000209060040201600301818154811061181f5761181e612d24565b5b906000526020600020906002020160000160009054906101000a900473ffffffffffffffffffffffffffffffffffffffff1673ffffffffffffffffffffffffffffffffffffffff166108fc6000858154811061187e5761187d612d24565b5b906000526020600020906004020160030183815481106118a1576118a0612d24565b5b9060005260206000209060020201600101549081150290604051600060405180830381858888f193505050501580156118de573d6000803e3d6000fd5b5080806118ea90612dd8565b9150506117b8565b506000828154811061190757611906612d24565b5b9060005260206000209060040201600301600061192491906123a7565b50506119d7565b808061193690612dd8565b9150506113bf565b506000611980576040517f08c379a0000000000000000000000000000000000000000000000000000000008152600401611977906132bd565b60405180910390fd5b5b808061198c90612dd8565b915050611284565b5060006119d6576040517f08c379a00000000000000000000000000000000000000000000000000000000081526004016119cd90613136565b60405180910390fd5b5b5050565b600160009054906101000a900473ffffffffffffffffffffffffffffffffffffffff1673ffffffffffffffffffffffffffffffffffffffff163373ffffffffffffffffffffffffffffffffffffffff1614611a6b576040517f08c379a0000000000000000000000000000000000000000000000000000000008152600401611a62906133e1565b60405180910390fd5b600160009054906101000a900473ffffffffffffffffffffffffffffffffffffffff1673ffffffffffffffffffffffffffffffffffffffff16ff5b60008181548110611ab657600080fd5b90600052602060002090600402016000915090508060000160009054906101000a900473ffffffffffffffffffffffffffffffffffffffff1690806001018054611aff90612cf2565b80601f0160208091040260200160405190810160405280929190818152602001828054611b2b90612cf2565b8015611b785780601f10611b4d57610100808354040283529160200191611b78565b820191906000526020600020905b815481529060010190602001808311611b5b57829003601f168201915b505050505090806002018054611b8d90612cf2565b80601f0160208091040260200160405190810160405280929190818152602001828054611bb990612cf2565b8015611c065780601f10611bdb57610100808354040283529160200191611c06565b820191906000526020600020905b815481529060010190602001808311611be957829003601f168201915b5050505050905083565b6000825111611c1e57600080fd5b6000815111611c2c57600080fd5b600073ffffffffffffffffffffffffffffffffffffffff163373ffffffffffffffffffffffffffffffffffffffff161415611c6657600080fd5b60005b600080549050811015611d435781604051602001611c879190612e5d565b6040516020818303038152906040528051906020012060008281548110611cb157611cb0612d24565b5b9060005260206000209060040201600201604051602001611cd29190612f08565b604051602081830303815290604052805190602001201415611d30576000611d2f576040517f08c379a0000000000000000000000000000000000000000000000000000000008152600401611d269061344d565b60405180910390fd5b5b8080611d3b90612dd8565b915050611c69565b506000806001816001815401808255809150500390600052602060002090600402019050338160000160006101000a81548173ffffffffffffffffffffffffffffffffffffffff021916908373ffffffffffffffffffffffffffffffffffffffff16021790555082816001019080519060200190611dc29291906123cb565b5081816002019080519060200190611ddb9291906123cb565b507f2a16f070a976c3cbcf26c4c43f626b4f30c0a98271b22e84fe954cab0f53a5ec81604051611e0b91906136bc565b60405180910390a1505050565b60005b6000805490508110156123235781604051602001611e399190612e5d565b6040516020818303038152906040528051906020012060008281548110611e6357611e62612d24565b5b9060005260206000209060040201600201604051602001611e849190612f08565b6040516020818303038152906040528051906020012014156123105760008181548110611eb457611eb3612d24565b5b906000526020600020906004020160000160009054906101000a900473ffffffffffffffffffffffffffffffffffffffff1673ffffffffffffffffffffffffffffffffffffffff163373ffffffffffffffffffffffffffffffffffffffff161415611f1e57600080fd5b60005b60008281548110611f3557611f34612d24565b5b9060005260206000209060040201600301805490508110156122cd5733604051602001611f629190612ff9565b6040516020818303038152906040528051906020012060008381548110611f8c57611f8b612d24565b5b90600052602060002090600402016003018281548110611faf57611fae612d24565b5b906000526020600020906002020160000160009054906101000a900473ffffffffffffffffffffffffffffffffffffffff16604051602001611ff1919061303d565b6040516020818303038152906040528051906020012014156122ba576000828154811061202157612020612d24565b5b9060005260206000209060040201600301818154811061204457612043612d24565b5b906000526020600020906002020160000160009054906101000a900473ffffffffffffffffffffffffffffffffffffffff1673ffffffffffffffffffffffffffffffffffffffff166108fc600084815481106120a3576120a2612d24565b5b906000526020600020906004020160030183815481106120c6576120c5612d24565b5b9060005260206000209060020201600101549081150290604051600060405180830381858888f19350505050158015612103573d6000803e3d6000fd5b506000828154811061211857612117612d24565b5b906000526020600020906004020160030160016000848154811061213f5761213e612d24565b5b90600052602060002090600402016003018054905061215e91906131e8565b8154811061216f5761216e612d24565b5b90600052602060002090600202016000838154811061219157612190612d24565b5b906000526020600020906004020160030182815481106121b4576121b3612d24565b5b90600052602060002090600202016000820160009054906101000a900473ffffffffffffffffffffffffffffffffffffffff168160000160006101000a81548173ffffffffffffffffffffffffffffffffffffffff021916908373ffffffffffffffffffffffffffffffffffffffff160217905550600182015481600101559050506000828154811061224a57612249612d24565b5b906000526020600020906004020160030180548061226b5761226a61321c565b5b6001900381819060005260206000209060020201600080820160006101000a81549073ffffffffffffffffffffffffffffffffffffffff02191690556001820160009055505090555050612366565b80806122c590612dd8565b915050611f21565b50600061230f576040517f08c379a0000000000000000000000000000000000000000000000000000000008152600401612306906132bd565b60405180910390fd5b5b808061231b90612dd8565b915050611e1b565b506000612365576040517f08c379a000000000000000000000000000000000000000000000000000000000815260040161235c90613136565b60405180910390fd5b5b50565b6040518060800160405280600073ffffffffffffffffffffffffffffffffffffffff1681526020016000815260200160608152602001606081525090565b50805460008255600202906000526020600020908101906123c89190612451565b50565b8280546123d790612cf2565b90600052602060002090601f0160209004810192826123f95760008555612440565b82601f1061241257805160ff1916838001178555612440565b82800160010185558215612440579182015b8281111561243f578251825591602001919060010190612424565b5b50905061244d9190612497565b5090565b5b8082111561249357600080820160006101000a81549073ffffffffffffffffffffffffffffffffffffffff0219169055600182016000905550600201612452565b5090565b5b808211156124b0576000816000905550600101612498565b5090565b600081519050919050565b600082825260208201905092915050565b6000819050602082019050919050565b600073ffffffffffffffffffffffffffffffffffffffff82169050919050565b600061250b826124e0565b9050919050565b61251b81612500565b82525050565b600081519050919050565b600082825260208201905092915050565b60005b8381101561255b578082015181840152602081019050612540565b8381111561256a576000848401525b50505050565b6000601f19601f8301169050919050565b600061258c82612521565b612596818561252c565b93506125a681856020860161253d565b6125af81612570565b840191505092915050565b600081519050919050565b600082825260208201905092915050565b6000819050602082019050919050565b6000819050919050565b6125f9816125e6565b82525050565b6040820160008201516126156000850182612512565b50602082015161262860208501826125f0565b50505050565b600061263a83836125ff565b60408301905092915050565b6000602082019050919050565b600061265e826125ba565b61266881856125c5565b9350612673836125d6565b8060005b838110156126a457815161268b888261262e565b975061269683612646565b925050600181019050612677565b5085935050505092915050565b60006080830160008301516126c96000860182612512565b50602083015184820360208601526126e18282612581565b915050604083015184820360408601526126fb8282612581565b915050606083015184820360608601526127158282612653565b9150508091505092915050565b600061272e83836126b1565b905092915050565b6000602082019050919050565b600061274e826124b4565b61275881856124bf565b93508360208202850161276a856124d0565b8060005b858110156127a657848403895281516127878582612722565b945061279283612736565b925060208a0199505060018101905061276e565b50829750879550505050505092915050565b600060208201905081810360008301526127d28184612743565b905092915050565b600081519050919050565b600082825260208201905092915050565b6000819050602082019050919050565b600060808301600083015161281e6000860182612512565b50602083015161283160208601826125f0565b50604083015184820360408601526128498282612581565b915050606083015184820360608601526128638282612581565b9150508091505092915050565b600061287c8383612806565b905092915050565b6000602082019050919050565b600061289c826127da565b6128a681856127e5565b9350836020820285016128b8856127f6565b8060005b858110156128f457848403895281516128d58582612870565b94506128e083612884565b925060208a019950506001810190506128bc565b50829750879550505050505092915050565b600060208201905081810360008301526129208184612891565b905092915050565b6000604051905090565b600080fd5b600080fd5b600080fd5b600080fd5b7f4e487b7100000000000000000000000000000000000000000000000000000000600052604160045260246000fd5b61297e82612570565b810181811067ffffffffffffffff8211171561299d5761299c612946565b5b80604052505050565b60006129b0612928565b90506129bc8282612975565b919050565b600067ffffffffffffffff8211156129dc576129db612946565b5b6129e582612570565b9050602081019050919050565b82818337600083830152505050565b6000612a14612a0f846129c1565b6129a6565b905082815260208101848484011115612a3057612a2f612941565b5b612a3b8482856129f2565b509392505050565b600082601f830112612a5857612a5761293c565b5b8135612a68848260208601612a01565b91505092915050565b600060208284031215612a8757612a86612932565b5b600082013567ffffffffffffffff811115612aa557612aa4612937565b5b612ab184828501612a43565b91505092915050565b6000612ac5826124e0565b9050919050565b612ad581612aba565b8114612ae057600080fd5b50565b600081359050612af281612acc565b92915050565b60008060408385031215612b0f57612b0e612932565b5b600083013567ffffffffffffffff811115612b2d57612b2c612937565b5b612b3985828601612a43565b9250506020612b4a85828601612ae3565b9150509250929050565b612b5d816125e6565b8114612b6857600080fd5b50565b600081359050612b7a81612b54565b92915050565b600060208284031215612b9657612b95612932565b5b6000612ba484828501612b6b565b91505092915050565b612bb681612500565b82525050565b600082825260208201905092915050565b6000612bd882612521565b612be28185612bbc565b9350612bf281856020860161253d565b612bfb81612570565b840191505092915050565b6000606082019050612c1b6000830186612bad565b8181036020830152612c2d8185612bcd565b90508181036040830152612c418184612bcd565b9050949350505050565b60008060408385031215612c6257612c61612932565b5b600083013567ffffffffffffffff811115612c8057612c7f612937565b5b612c8c85828601612a43565b925050602083013567ffffffffffffffff811115612cad57612cac612937565b5b612cb985828601612a43565b9150509250929050565b7f4e487b7100000000000000000000000000000000000000000000000000000000600052602260045260246000fd5b60006002820490506001821680612d0a57607f821691505b60208210811415612d1e57612d1d612cc3565b5b50919050565b7f4e487b7100000000000000000000000000000000000000000000000000000000600052603260045260246000fd5b7f4e487b7100000000000000000000000000000000000000000000000000000000600052601160045260246000fd5b6000612d8d826125e6565b9150612d98836125e6565b9250827fffffffffffffffffffffffffffffffffffffffffffffffffffffffffffffffff03821115612dcd57612dcc612d53565b5b828201905092915050565b6000612de3826125e6565b91507fffffffffffffffffffffffffffffffffffffffffffffffffffffffffffffffff821415612e1657612e15612d53565b5b600182019050919050565b600081905092915050565b6000612e3782612521565b612e418185612e21565b9350612e5181856020860161253d565b80840191505092915050565b6000612e698284612e2c565b915081905092915050565b60008190508160005260206000209050919050565b60008154612e9681612cf2565b612ea08186612e21565b94506001821660008114612ebb5760018114612ecc57612eff565b60ff19831686528186019350612eff565b612ed585612e74565b60005b83811015612ef757815481890152600182019150602081019050612ed8565b838801955050505b50505092915050565b6000612f148284612e89565b915081905092915050565b7f50726f706f73616c206d7573742068617665206120706f73697469766520707260008201527f6963650000000000000000000000000000000000000000000000000000000000602082015250565b6000612f7b602383612bbc565b9150612f8682612f1f565b604082019050919050565b60006020820190508181036000830152612faa81612f6e565b9050919050565b60008160601b9050919050565b6000612fc982612fb1565b9050919050565b6000612fdb82612fbe565b9050919050565b612ff3612fee82612aba565b612fd0565b82525050565b60006130058284612fe2565b60148201915081905092915050565b600061301f82612fbe565b9050919050565b61303761303282612500565b613014565b82525050565b60006130498284613026565b60148201915081905092915050565b7f596f7520616c72656164792073656e7420612070726f706f73616c20666f722060008201527f7468697320696d61676500000000000000000000000000000000000000000000602082015250565b60006130b4602a83612bbc565b91506130bf82613058565b604082019050919050565b600060208201905081810360008301526130e3816130a7565b9050919050565b7f496d616765206e6f7420666f756e640000000000000000000000000000000000600082015250565b6000613120600f83612bbc565b915061312b826130ea565b602082019050919050565b6000602082019050818103600083015261314f81613113565b9050919050565b7f4f6e6c7920746865206f776e65722063616e207265667573652070726f706f7360008201527f616c730000000000000000000000000000000000000000000000000000000000602082015250565b60006131b2602383612bbc565b91506131bd82613156565b604082019050919050565b600060208201905081810360008301526131e1816131a5565b9050919050565b60006131f3826125e6565b91506131fe836125e6565b92508282101561321157613210612d53565b5b828203905092915050565b7f4e487b7100000000000000000000000000000000000000000000000000000000600052603160045260246000fd5b7f50726f706f73616c206e6f7420666f756e6420666f72207468697320696d616760008201527f6500000000000000000000000000000000000000000000000000000000000000602082015250565b60006132a7602183612bbc565b91506132b28261324b565b604082019050919050565b600060208201905081810360008301526132d68161329a565b9050919050565b7f4f6e6c7920746865206f776e65722063616e206163636570742070726f706f7360008201527f616c730000000000000000000000000000000000000000000000000000000000602082015250565b6000613339602383612bbc565b9150613344826132dd565b604082019050919050565b600060208201905081810360008301526133688161332c565b9050919050565b7f4f6e6c7920746865206f776e65722063616e2064657374726f7920746865206360008201527f6f6e747261637400000000000000000000000000000000000000000000000000602082015250565b60006133cb602783612bbc565b91506133d68261336f565b604082019050919050565b600060208201905081810360008301526133fa816133be565b9050919050565b7f496d61676520616c726561647920657869737473000000000000000000000000600082015250565b6000613437601483612bbc565b915061344282613401565b602082019050919050565b600060208201905081810360008301526134668161342a565b9050919050565b60008160001c9050919050565b600073ffffffffffffffffffffffffffffffffffffffff82169050919050565b60006134ad6134a88361346d565b61347a565b9050919050565b600081546134c181612cf2565b6134cb818661252c565b945060018216600081146134e657600181146134f85761352b565b60ff198316865260208601935061352b565b61350185612e74565b60005b8381101561352357815481890152600182019150602081019050613504565b808801955050505b50505092915050565b600081549050919050565b60008190508160005260206000209050919050565b6000819050919050565b600061357161356c8361346d565b613554565b9050919050565b60408201600080830154905061358d8161349a565b61359a6000860182612512565b50600183015490506135ab8161355e565b6135b860208601826125f0565b5050505050565b60006135cb8383613578565b60408301905092915050565b6000600282019050919050565b60006135ef82613534565b6135f981856125c5565b93506136048361353f565b8060005b83811015613634578161361b88826135bf565b9750613626836135d7565b925050600181019050613608565b5085935050505092915050565b60006080830160008084015490506136588161349a565b6136656000870182612512565b5060018401858303602087015261367c83826134b4565b92505060028401858303604087015261369583826134b4565b9250506003840185830360608701526136ae83826135e4565b925050819250505092915050565b600060208201905081810360008301526136d68184613641565b90509291505056fea2646970667358221220241b6c17cd3b00da0f1bcff62c9f6b940c1b480f677a5c539597684e6c074ffb64736f6c634300080b0033",
  "immutableReferences": {},
  "source": "// SPDX-License-Identifier: MIT\n// Nome: Joo Vtor Souto dos Santos\n// Nome: Rafael Silva Freire\n// Conta do contrato: 0x000000\n\n// Seu contrato comea aqui!\npragma solidity ^0.8.11;\n\ncontract Gallery {\n    struct Proposal {\n        address payable owner;\n        uint256 price;\n    }\n\n    struct ProposalImage {\n        address payable owner;\n        uint256 price;\n        string hash;\n        string name;\n    }\n\n    struct Image {\n        address payable owner;\n        string name;\n        string hash;\n        Proposal[] proposals;\n    }\n\n    event ImageUploaded(Image image);\n\n    Image[] public images;\n    address payable owner;\n\n    constructor() {\n        owner = payable(msg.sender);\n    }\n\n    function getProposalsByOwner()\n        public\n        view\n        returns (ProposalImage[] memory)\n    {\n        uint256 qntProposals = 0;\n        uint256 index = 0;\n\n        for (uint256 i = 0; i < images.length; i++) {\n            if (msg.sender == images[i].owner) {\n                qntProposals += images[i].proposals.length;\n            }\n        }\n\n        ProposalImage[] memory ownerProposals = new ProposalImage[](\n            qntProposals\n        );\n\n        for (uint256 i = 0; i < images.length; i++) {\n            if (msg.sender == images[i].owner) {\n                for (uint256 j = 0; j < images[i].proposals.length; j++) {\n                    ProposalImage memory proposal;\n                    proposal.owner = images[i].proposals[j].owner;\n                    proposal.price = images[i].proposals[j].price;\n                    proposal.hash = images[i].hash;\n                    proposal.name = images[i].name;\n                    ownerProposals[index] = proposal;\n                    index++;\n                }\n            }\n        }\n\n        return ownerProposals;\n    }\n\n    function getImages() public view returns (Image[] memory) {\n        return images;\n    }\n\n    function uploadImage(string memory name, string memory hash) public {\n        require(bytes(name).length > 0);\n        require(bytes(hash).length > 0);\n        require(msg.sender != address(0));\n\n        for (uint256 i = 0; i < images.length; i++) {\n            if (keccak256(abi.encodePacked(images[i].hash)) ==\n                keccak256(abi.encodePacked(hash))) {\n                require(false, \"Image already exists\");\n            }\n        }\n\n        Image storage image = images.push();\n        image.owner = payable(msg.sender);\n        image.name = name;\n        image.hash = hash;\n        emit ImageUploaded(image);\n    }\n\n    function addProposal(string memory imageHash) public payable {\n        for (uint256 i = 0; i < images.length; i++) {\n            if (\n                keccak256(abi.encodePacked(images[i].hash)) ==\n                keccak256(abi.encodePacked(imageHash))\n            ) {\n                require(msg.sender != images[i].owner);\n                require(msg.value > 0, \"Proposal must have a positive price\");\n\n                for (uint256 j = 0; j < images[i].proposals.length; j++) {\n                    require(\n                        keccak256(\n                            abi.encodePacked(images[i].proposals[j].owner)\n                        ) != keccak256(abi.encodePacked(msg.sender)),\n                        \"You already sent a proposal for this image\"\n                    );\n                }\n\n                Proposal memory proposal = Proposal(\n                    payable(msg.sender),\n                    msg.value\n                );\n                images[i].proposals.push(proposal);\n\n                return;\n            }\n        }\n\n        require(false, \"Image not found\");\n    }\n\n    function removeProposal(string memory imageHash) public {\n        for (uint256 i = 0; i < images.length; i++) {\n            if (\n                keccak256(abi.encodePacked(images[i].hash)) ==\n                keccak256(abi.encodePacked(imageHash))\n            ) {\n                require(msg.sender != images[i].owner);\n\n                for (uint256 j = 0; j < images[i].proposals.length; j++) {\n                    if (\n                        keccak256(\n                            abi.encodePacked(images[i].proposals[j].owner)\n                        ) == keccak256(abi.encodePacked(msg.sender))\n                    ) {\n                        images[i].proposals[j].owner.transfer(\n                            images[i].proposals[j].price\n                        );\n                        images[i].proposals[j] = images[i].proposals[\n                            images[i].proposals.length - 1\n                        ];\n                        images[i].proposals.pop();\n                        return;\n                    }\n                }\n\n                require(false, \"Proposal not found for this image\");\n            }\n        }\n\n        require(false, \"Image not found\");\n    }\n\n    function acceptProposal(string memory imageHash, address proposalOwner)\n        public\n    {\n        for (uint256 i = 0; i < images.length; i++) {\n            if (\n                keccak256(abi.encodePacked(images[i].hash)) ==\n                keccak256(abi.encodePacked(imageHash))\n            ) {\n                require(\n                    msg.sender == images[i].owner,\n                    \"Only the owner can accept proposals\"\n                );\n\n                for (uint256 j = 0; j < images[i].proposals.length; j++) {\n                    if (\n                        keccak256(\n                            abi.encodePacked(images[i].proposals[j].owner)\n                        ) == keccak256(abi.encodePacked(proposalOwner))\n                    ) {\n                        payable(msg.sender).transfer(\n                            images[i].proposals[j].price\n                        );\n                        images[i].owner = images[i].proposals[j].owner;\n                        images[i].proposals[j] = images[i].proposals[\n                            images[i].proposals.length - 1\n                        ];\n                        images[i].proposals.pop();\n\n                        for (\n                            uint256 k = 0;\n                            k < images[i].proposals.length;\n                            k++\n                        ) {\n                            images[i].proposals[k].owner.transfer(\n                                images[i].proposals[k].price\n                            );\n                        }\n\n                        delete images[i].proposals;\n\n                        return;\n                    }\n                }\n\n                require(false, \"Proposal not found for this image\");\n            }\n        }\n\n        require(false, \"Image not found\");\n    }\n\n    function refuseProposal(string memory imageHash, address proposalOwner)\n        public\n    {\n        for (uint256 i = 0; i < images.length; i++) {\n            if (\n                keccak256(abi.encodePacked(images[i].hash)) ==\n                keccak256(abi.encodePacked(imageHash))\n            ) {\n                require(\n                    msg.sender == images[i].owner,\n                    \"Only the owner can refuse proposals\"\n                );\n\n                for (uint256 j = 0; j < images[i].proposals.length; j++) {\n                    if (\n                        keccak256(\n                            abi.encodePacked(images[i].proposals[j].owner)\n                        ) == keccak256(abi.encodePacked(proposalOwner))\n                    ) {\n                        images[i].proposals[j].owner.transfer(\n                            images[i].proposals[j].price\n                        );\n                        images[i].proposals[j] = images[i].proposals[\n                            images[i].proposals.length - 1\n                        ];\n                        images[i].proposals.pop();\n                        return;\n                    }\n                }\n\n                require(false, \"Proposal not found for this image\");\n            }\n        }\n\n        require(false, \"Image not found\");\n    }\n\n    function destroy() public {\n        require(msg.sender == owner, \"Only the owner can destroy the contract\");\n\n        selfdestruct(owner);\n    }\n}\n",
  "sourcePath": "/home/jv/Documents/BTI/6 Perodo/Blockchain/social-gallery-auction/src/contracts/Gallery.sol",
  "compiler": {
    "name": "solc",
    "version": "0.8.11+commit.d7f03943.Emscripten.clang"
  },
  "schemaVersion": "3.4.3",
  "updatedAt": "2022-02-06T18:03:41.303Z",
  "networkType": "ethereum",
  "devdoc": {
    "kind": "dev",
    "methods": {},
    "version": 1
  },
  "userdoc": {
    "kind": "user",
    "methods": {},
    "version": 1
  }
}