{
  "contractName": "Gallery",
  "abi": [
    {
      "inputs": [],
      "stateMutability": "nonpayable",
      "type": "constructor"
    },
    {
      "anonymous": false,
      "inputs": [
        {
          "components": [
            {
              "internalType": "address payable",
              "name": "owner",
              "type": "address"
            },
            {
              "internalType": "string",
              "name": "name",
              "type": "string"
            },
            {
              "internalType": "string",
              "name": "hash",
              "type": "string"
            },
            {
              "components": [
                {
                  "internalType": "address payable",
                  "name": "owner",
                  "type": "address"
                },
                {
                  "internalType": "uint256",
                  "name": "price",
                  "type": "uint256"
                }
              ],
              "internalType": "struct Gallery.Proposal[]",
              "name": "proposals",
              "type": "tuple[]"
            }
          ],
          "indexed": false,
          "internalType": "struct Gallery.Image",
          "name": "image",
          "type": "tuple"
        }
      ],
      "name": "ImageUploaded",
      "type": "event"
    },
    {
      "inputs": [
        {
          "internalType": "uint256",
          "name": "",
          "type": "uint256"
        }
      ],
      "name": "images",
      "outputs": [
        {
          "internalType": "address payable",
          "name": "owner",
          "type": "address"
        },
        {
          "internalType": "string",
          "name": "name",
          "type": "string"
        },
        {
          "internalType": "string",
          "name": "hash",
          "type": "string"
        }
      ],
      "stateMutability": "view",
      "type": "function",
      "constant": true
    },
    {
      "inputs": [],
      "name": "getProposalsByOwner",
      "outputs": [
        {
          "components": [
            {
              "internalType": "address payable",
              "name": "owner",
              "type": "address"
            },
            {
              "internalType": "uint256",
              "name": "price",
              "type": "uint256"
            },
            {
              "internalType": "string",
              "name": "hash",
              "type": "string"
            },
            {
              "internalType": "string",
              "name": "name",
              "type": "string"
            }
          ],
          "internalType": "struct Gallery.ProposalImage[]",
          "name": "",
          "type": "tuple[]"
        }
      ],
      "stateMutability": "view",
      "type": "function",
      "constant": true
    },
    {
      "inputs": [],
      "name": "getImages",
      "outputs": [
        {
          "components": [
            {
              "internalType": "address payable",
              "name": "owner",
              "type": "address"
            },
            {
              "internalType": "string",
              "name": "name",
              "type": "string"
            },
            {
              "internalType": "string",
              "name": "hash",
              "type": "string"
            },
            {
              "components": [
                {
                  "internalType": "address payable",
                  "name": "owner",
                  "type": "address"
                },
                {
                  "internalType": "uint256",
                  "name": "price",
                  "type": "uint256"
                }
              ],
              "internalType": "struct Gallery.Proposal[]",
              "name": "proposals",
              "type": "tuple[]"
            }
          ],
          "internalType": "struct Gallery.Image[]",
          "name": "",
          "type": "tuple[]"
        }
      ],
      "stateMutability": "view",
      "type": "function",
      "constant": true
    },
    {
      "inputs": [
        {
          "internalType": "string",
          "name": "name",
          "type": "string"
        },
        {
          "internalType": "string",
          "name": "hash",
          "type": "string"
        }
      ],
      "name": "uploadImage",
      "outputs": [],
      "stateMutability": "nonpayable",
      "type": "function"
    },
    {
      "inputs": [
        {
          "internalType": "string",
          "name": "imageHash",
          "type": "string"
        }
      ],
      "name": "addProposal",
      "outputs": [],
      "stateMutability": "payable",
      "type": "function",
      "payable": true
    },
    {
      "inputs": [
        {
          "internalType": "string",
          "name": "imageHash",
          "type": "string"
        }
      ],
      "name": "removeProposal",
      "outputs": [],
      "stateMutability": "nonpayable",
      "type": "function"
    },
    {
      "inputs": [
        {
          "internalType": "string",
          "name": "imageHash",
          "type": "string"
        },
        {
          "internalType": "address",
          "name": "proposalOwner",
          "type": "address"
        }
      ],
      "name": "acceptProposal",
      "outputs": [],
      "stateMutability": "nonpayable",
      "type": "function"
    },
    {
      "inputs": [
        {
          "internalType": "string",
          "name": "imageHash",
          "type": "string"
        },
        {
          "internalType": "address",
          "name": "proposalOwner",
          "type": "address"
        }
      ],
      "name": "refuseProposal",
      "outputs": [],
      "stateMutability": "nonpayable",
      "type": "function"
    },
    {
      "inputs": [],
      "name": "destroy",
      "outputs": [],
      "stateMutability": "nonpayable",
      "type": "function"
    }
  ],
  "bytecode": "0x608060405234801561001057600080fd5b5033600160006101000a81548173ffffffffffffffffffffffffffffffffffffffff021916908373ffffffffffffffffffffffffffffffffffffffff1602179055506135ca806100616000396000f3fe6080604052600436106100865760003560e01c806375c8042d1161005957806375c8042d1461012657806383197ef01461014f5780638485648214610166578063a91b8314146101a5578063bbcbdc61146101ce57610086565b8063114983341461008b57806316bb377c146100b65780632fdae3c5146100e157806367d5a293146100fd575b600080fd5b34801561009757600080fd5b506100a06101f7565b6040516100ad91906126da565b60405180910390f35b3480156100c257600080fd5b506100cb61048f565b6040516100d89190612828565b60405180910390f35b6100fb60048036038101906100f69190612993565b610942565b005b34801561010957600080fd5b50610124600480360381019061011f9190612a1a565b610cfa565b005b34801561013257600080fd5b5061014d60048036038101906101489190612a1a565b611281565b005b34801561015b57600080fd5b506101646119db565b005b34801561017257600080fd5b5061018d60048036038101906101889190612aa2565b611aa6565b60405161019c93929190612b28565b60405180910390f35b3480156101b157600080fd5b506101cc60048036038101906101c79190612b6d565b611c10565b005b3480156101da57600080fd5b506101f560048036038101906101f09190612993565b611d3a565b005b60606000805480602002602001604051908101604052809291908181526020016000905b8282101561048657838290600052602060002090600402016040518060800160405290816000820160009054906101000a900473ffffffffffffffffffffffffffffffffffffffff1673ffffffffffffffffffffffffffffffffffffffff1673ffffffffffffffffffffffffffffffffffffffff1681526020016001820180546102a490612c14565b80601f01602080910402602001604051908101604052809291908181526020018280546102d090612c14565b801561031d5780601f106102f25761010080835404028352916020019161031d565b820191906000526020600020905b81548152906001019060200180831161030057829003601f168201915b5050505050815260200160028201805461033690612c14565b80601f016020809104026020016040519081016040528092919081815260200182805461036290612c14565b80156103af5780601f10610384576101008083540402835291602001916103af565b820191906000526020600020905b81548152906001019060200180831161039257829003601f168201915b5050505050815260200160038201805480602002602001604051908101604052809291908181526020016000905b8282101561046f57838290600052602060002090600202016040518060400160405290816000820160009054906101000a900473ffffffffffffffffffffffffffffffffffffffff1673ffffffffffffffffffffffffffffffffffffffff1673ffffffffffffffffffffffffffffffffffffffff168152602001600182015481525050815260200190600101906103dd565b50505050815250508152602001906001019061021b565b50505050905090565b606060008060005b60008054905081101561056757600081815481106104b8576104b7612c46565b5b906000526020600020906004020160000160009054906101000a900473ffffffffffffffffffffffffffffffffffffffff1673ffffffffffffffffffffffffffffffffffffffff163373ffffffffffffffffffffffffffffffffffffffff161415610554576000818154811061053157610530612c46565b5b906000526020600020906004020160030180549050836105519190612ca4565b92505b808061055f90612cfa565b915050610497565b5060008267ffffffffffffffff81111561058457610583612868565b5b6040519080825280602002602001820160405280156105bd57816020015b6105aa61228b565b8152602001906001900390816105a25790505b50905060005b60008054905081101561093857600081815481106105e4576105e3612c46565b5b906000526020600020906004020160000160009054906101000a900473ffffffffffffffffffffffffffffffffffffffff1673ffffffffffffffffffffffffffffffffffffffff163373ffffffffffffffffffffffffffffffffffffffff1614156109255760005b600082815481106106605761065f612c46565b5b9060005260206000209060040201600301805490508110156109235761068461228b565b6000838154811061069857610697612c46565b5b906000526020600020906004020160030182815481106106bb576106ba612c46565b5b906000526020600020906002020160000160009054906101000a900473ffffffffffffffffffffffffffffffffffffffff16816000019073ffffffffffffffffffffffffffffffffffffffff16908173ffffffffffffffffffffffffffffffffffffffff16815250506000838154811061073857610737612c46565b5b9060005260206000209060040201600301828154811061075b5761075a612c46565b5b9060005260206000209060020201600101548160200181815250506000838154811061078a57610789612c46565b5b906000526020600020906004020160020180546107a690612c14565b80601f01602080910402602001604051908101604052809291908181526020018280546107d290612c14565b801561081f5780601f106107f45761010080835404028352916020019161081f565b820191906000526020600020905b81548152906001019060200180831161080257829003601f168201915b50505050508160400181905250600083815481106108405761083f612c46565b5b9060005260206000209060040201600101805461085c90612c14565b80601f016020809104026020016040519081016040528092919081815260200182805461088890612c14565b80156108d55780601f106108aa576101008083540402835291602001916108d5565b820191906000526020600020905b8154815290600101906020018083116108b857829003601f168201915b50505050508160600181905250808486815181106108f6576108f5612c46565b5b6020026020010181905250848061090c90612cfa565b95505050808061091b90612cfa565b91505061064c565b505b808061093090612cfa565b9150506105c3565b5080935050505090565b60005b600080549050811015610cb457816040516020016109639190612d7f565b604051602081830303815290604052805190602001206000828154811061098d5761098c612c46565b5b90600052602060002090600402016002016040516020016109ae9190612e2a565b604051602081830303815290604052805190602001201415610ca157600081815481106109de576109dd612c46565b5b906000526020600020906004020160000160009054906101000a900473ffffffffffffffffffffffffffffffffffffffff1673ffffffffffffffffffffffffffffffffffffffff163373ffffffffffffffffffffffffffffffffffffffff161415610a4857600080fd5b60003411610a8b576040517f08c379a0000000000000000000000000000000000000000000000000000000008152600401610a8290612eb3565b60405180910390fd5b60005b60008281548110610aa257610aa1612c46565b5b906000526020600020906004020160030180549050811015610bc85733604051602001610acf9190612f1b565b6040516020818303038152906040528051906020012060008381548110610af957610af8612c46565b5b90600052602060002090600402016003018281548110610b1c57610b1b612c46565b5b906000526020600020906002020160000160009054906101000a900473ffffffffffffffffffffffffffffffffffffffff16604051602001610b5e9190612f5f565b604051602081830303815290604052805190602001201415610bb5576040517f08c379a0000000000000000000000000000000000000000000000000000000008152600401610bac90612fec565b60405180910390fd5b8080610bc090612cfa565b915050610a8e565b50600060405180604001604052803373ffffffffffffffffffffffffffffffffffffffff16815260200134815250905060008281548110610c0c57610c0b612c46565b5b906000526020600020906004020160030181908060018154018082558091505060019003906000526020600020906002020160009091909190915060008201518160000160006101000a81548173ffffffffffffffffffffffffffffffffffffffff021916908373ffffffffffffffffffffffffffffffffffffffff1602179055506020820151816001015550505050610cf7565b8080610cac90612cfa565b915050610945565b506000610cf6576040517f08c379a0000000000000000000000000000000000000000000000000000000008152600401610ced90613058565b60405180910390fd5b5b50565b60005b60008054905081101561123a5782604051602001610d1b9190612d7f565b6040516020818303038152906040528051906020012060008281548110610d4557610d44612c46565b5b9060005260206000209060040201600201604051602001610d669190612e2a565b6040516020818303038152906040528051906020012014156112275760008181548110610d9657610d95612c46565b5b906000526020600020906004020160000160009054906101000a900473ffffffffffffffffffffffffffffffffffffffff1673ffffffffffffffffffffffffffffffffffffffff163373ffffffffffffffffffffffffffffffffffffffff1614610e35576040517f08c379a0000000000000000000000000000000000000000000000000000000008152600401610e2c906130ea565b60405180910390fd5b60005b60008281548110610e4c57610e4b612c46565b5b9060005260206000209060040201600301805490508110156111e45782604051602001610e799190612f1b565b6040516020818303038152906040528051906020012060008381548110610ea357610ea2612c46565b5b90600052602060002090600402016003018281548110610ec657610ec5612c46565b5b906000526020600020906002020160000160009054906101000a900473ffffffffffffffffffffffffffffffffffffffff16604051602001610f089190612f5f565b6040516020818303038152906040528051906020012014156111d15760008281548110610f3857610f37612c46565b5b90600052602060002090600402016003018181548110610f5b57610f5a612c46565b5b906000526020600020906002020160000160009054906101000a900473ffffffffffffffffffffffffffffffffffffffff1673ffffffffffffffffffffffffffffffffffffffff166108fc60008481548110610fba57610fb9612c46565b5b90600052602060002090600402016003018381548110610fdd57610fdc612c46565b5b9060005260206000209060020201600101549081150290604051600060405180830381858888f1935050505015801561101a573d6000803e3d6000fd5b506000828154811061102f5761102e612c46565b5b906000526020600020906004020160030160016000848154811061105657611055612c46565b5b906000526020600020906004020160030180549050611075919061310a565b8154811061108657611085612c46565b5b9060005260206000209060020201600083815481106110a8576110a7612c46565b5b906000526020600020906004020160030182815481106110cb576110ca612c46565b5b90600052602060002090600202016000820160009054906101000a900473ffffffffffffffffffffffffffffffffffffffff168160000160006101000a81548173ffffffffffffffffffffffffffffffffffffffff021916908373ffffffffffffffffffffffffffffffffffffffff160217905550600182015481600101559050506000828154811061116157611160612c46565b5b90600052602060002090600402016003018054806111825761118161313e565b5b6001900381819060005260206000209060020201600080820160006101000a81549073ffffffffffffffffffffffffffffffffffffffff0219169055600182016000905550509055505061127d565b80806111dc90612cfa565b915050610e38565b506000611226576040517f08c379a000000000000000000000000000000000000000000000000000000000815260040161121d906131df565b60405180910390fd5b5b808061123290612cfa565b915050610cfd565b50600061127c576040517f08c379a000000000000000000000000000000000000000000000000000000000815260040161127390613058565b60405180910390fd5b5b5050565b60005b60008054905081101561199457826040516020016112a29190612d7f565b60405160208183030381529060405280519060200120600082815481106112cc576112cb612c46565b5b90600052602060002090600402016002016040516020016112ed9190612e2a565b604051602081830303815290604052805190602001201415611981576000818154811061131d5761131c612c46565b5b906000526020600020906004020160000160009054906101000a900473ffffffffffffffffffffffffffffffffffffffff1673ffffffffffffffffffffffffffffffffffffffff163373ffffffffffffffffffffffffffffffffffffffff16146113bc576040517f08c379a00000000000000000000000000000000000000000000000000000000081526004016113b390613271565b60405180910390fd5b60005b600082815481106113d3576113d2612c46565b5b90600052602060002090600402016003018054905081101561193e57826040516020016114009190612f1b565b604051602081830303815290604052805190602001206000838154811061142a57611429612c46565b5b9060005260206000209060040201600301828154811061144d5761144c612c46565b5b906000526020600020906002020160000160009054906101000a900473ffffffffffffffffffffffffffffffffffffffff1660405160200161148f9190612f5f565b60405160208183030381529060405280519060200120141561192b573373ffffffffffffffffffffffffffffffffffffffff166108fc600084815481106114d9576114d8612c46565b5b906000526020600020906004020160030183815481106114fc576114fb612c46565b5b9060005260206000209060020201600101549081150290604051600060405180830381858888f19350505050158015611539573d6000803e3d6000fd5b506000828154811061154e5761154d612c46565b5b9060005260206000209060040201600301818154811061157157611570612c46565b5b906000526020600020906002020160000160009054906101000a900473ffffffffffffffffffffffffffffffffffffffff16600083815481106115b7576115b6612c46565b5b906000526020600020906004020160000160006101000a81548173ffffffffffffffffffffffffffffffffffffffff021916908373ffffffffffffffffffffffffffffffffffffffff1602179055506000828154811061161a57611619612c46565b5b906000526020600020906004020160030160016000848154811061164157611640612c46565b5b906000526020600020906004020160030180549050611660919061310a565b8154811061167157611670612c46565b5b90600052602060002090600202016000838154811061169357611692612c46565b5b906000526020600020906004020160030182815481106116b6576116b5612c46565b5b90600052602060002090600202016000820160009054906101000a900473ffffffffffffffffffffffffffffffffffffffff168160000160006101000a81548173ffffffffffffffffffffffffffffffffffffffff021916908373ffffffffffffffffffffffffffffffffffffffff160217905550600182015481600101559050506000828154811061174c5761174b612c46565b5b906000526020600020906004020160030180548061176d5761176c61313e565b5b6001900381819060005260206000209060020201600080820160006101000a81549073ffffffffffffffffffffffffffffffffffffffff021916905560018201600090555050905560005b600083815481106117cc576117cb612c46565b5b9060005260206000209060040201600301805490508110156118f257600083815481106117fc576117fb612c46565b5b9060005260206000209060040201600301818154811061181f5761181e612c46565b5b906000526020600020906002020160000160009054906101000a900473ffffffffffffffffffffffffffffffffffffffff1673ffffffffffffffffffffffffffffffffffffffff166108fc6000858154811061187e5761187d612c46565b5b906000526020600020906004020160030183815481106118a1576118a0612c46565b5b9060005260206000209060020201600101549081150290604051600060405180830381858888f193505050501580156118de573d6000803e3d6000fd5b5080806118ea90612cfa565b9150506117b8565b506000828154811061190757611906612c46565b5b9060005260206000209060040201600301600061192491906122c9565b50506119d7565b808061193690612cfa565b9150506113bf565b506000611980576040517f08c379a0000000000000000000000000000000000000000000000000000000008152600401611977906131df565b60405180910390fd5b5b808061198c90612cfa565b915050611284565b5060006119d6576040517f08c379a00000000000000000000000000000000000000000000000000000000081526004016119cd90613058565b60405180910390fd5b5b5050565b600160009054906101000a900473ffffffffffffffffffffffffffffffffffffffff1673ffffffffffffffffffffffffffffffffffffffff163373ffffffffffffffffffffffffffffffffffffffff1614611a6b576040517f08c379a0000000000000000000000000000000000000000000000000000000008152600401611a6290613303565b60405180910390fd5b600160009054906101000a900473ffffffffffffffffffffffffffffffffffffffff1673ffffffffffffffffffffffffffffffffffffffff16ff5b60008181548110611ab657600080fd5b90600052602060002090600402016000915090508060000160009054906101000a900473ffffffffffffffffffffffffffffffffffffffff1690806001018054611aff90612c14565b80601f0160208091040260200160405190810160405280929190818152602001828054611b2b90612c14565b8015611b785780601f10611b4d57610100808354040283529160200191611b78565b820191906000526020600020905b815481529060010190602001808311611b5b57829003601f168201915b505050505090806002018054611b8d90612c14565b80601f0160208091040260200160405190810160405280929190818152602001828054611bb990612c14565b8015611c065780601f10611bdb57610100808354040283529160200191611c06565b820191906000526020600020905b815481529060010190602001808311611be957829003601f168201915b5050505050905083565b6000825111611c1e57600080fd5b6000815111611c2c57600080fd5b600073ffffffffffffffffffffffffffffffffffffffff163373ffffffffffffffffffffffffffffffffffffffff161415611c6657600080fd5b6000806001816001815401808255809150500390600052602060002090600402019050338160000160006101000a81548173ffffffffffffffffffffffffffffffffffffffff021916908373ffffffffffffffffffffffffffffffffffffffff16021790555082816001019080519060200190611ce49291906122ed565b5081816002019080519060200190611cfd9291906122ed565b507f2a16f070a976c3cbcf26c4c43f626b4f30c0a98271b22e84fe954cab0f53a5ec81604051611d2d9190613572565b60405180910390a1505050565b60005b6000805490508110156122455781604051602001611d5b9190612d7f565b6040516020818303038152906040528051906020012060008281548110611d8557611d84612c46565b5b9060005260206000209060040201600201604051602001611da69190612e2a565b6040516020818303038152906040528051906020012014156122325760008181548110611dd657611dd5612c46565b5b906000526020600020906004020160000160009054906101000a900473ffffffffffffffffffffffffffffffffffffffff1673ffffffffffffffffffffffffffffffffffffffff163373ffffffffffffffffffffffffffffffffffffffff161415611e4057600080fd5b60005b60008281548110611e5757611e56612c46565b5b9060005260206000209060040201600301805490508110156121ef5733604051602001611e849190612f1b565b6040516020818303038152906040528051906020012060008381548110611eae57611ead612c46565b5b90600052602060002090600402016003018281548110611ed157611ed0612c46565b5b906000526020600020906002020160000160009054906101000a900473ffffffffffffffffffffffffffffffffffffffff16604051602001611f139190612f5f565b6040516020818303038152906040528051906020012014156121dc5760008281548110611f4357611f42612c46565b5b90600052602060002090600402016003018181548110611f6657611f65612c46565b5b906000526020600020906002020160000160009054906101000a900473ffffffffffffffffffffffffffffffffffffffff1673ffffffffffffffffffffffffffffffffffffffff166108fc60008481548110611fc557611fc4612c46565b5b90600052602060002090600402016003018381548110611fe857611fe7612c46565b5b9060005260206000209060020201600101549081150290604051600060405180830381858888f19350505050158015612025573d6000803e3d6000fd5b506000828154811061203a57612039612c46565b5b906000526020600020906004020160030160016000848154811061206157612060612c46565b5b906000526020600020906004020160030180549050612080919061310a565b8154811061209157612090612c46565b5b9060005260206000209060020201600083815481106120b3576120b2612c46565b5b906000526020600020906004020160030182815481106120d6576120d5612c46565b5b90600052602060002090600202016000820160009054906101000a900473ffffffffffffffffffffffffffffffffffffffff168160000160006101000a81548173ffffffffffffffffffffffffffffffffffffffff021916908373ffffffffffffffffffffffffffffffffffffffff160217905550600182015481600101559050506000828154811061216c5761216b612c46565b5b906000526020600020906004020160030180548061218d5761218c61313e565b5b6001900381819060005260206000209060020201600080820160006101000a81549073ffffffffffffffffffffffffffffffffffffffff02191690556001820160009055505090555050612288565b80806121e790612cfa565b915050611e43565b506000612231576040517f08c379a0000000000000000000000000000000000000000000000000000000008152600401612228906131df565b60405180910390fd5b5b808061223d90612cfa565b915050611d3d565b506000612287576040517f08c379a000000000000000000000000000000000000000000000000000000000815260040161227e90613058565b60405180910390fd5b5b50565b6040518060800160405280600073ffffffffffffffffffffffffffffffffffffffff1681526020016000815260200160608152602001606081525090565b50805460008255600202906000526020600020908101906122ea9190612373565b50565b8280546122f990612c14565b90600052602060002090601f01602090048101928261231b5760008555612362565b82601f1061233457805160ff1916838001178555612362565b82800160010185558215612362579182015b82811115612361578251825591602001919060010190612346565b5b50905061236f91906123b9565b5090565b5b808211156123b557600080820160006101000a81549073ffffffffffffffffffffffffffffffffffffffff0219169055600182016000905550600201612374565b5090565b5b808211156123d25760008160009055506001016123ba565b5090565b600081519050919050565b600082825260208201905092915050565b6000819050602082019050919050565b600073ffffffffffffffffffffffffffffffffffffffff82169050919050565b600061242d82612402565b9050919050565b61243d81612422565b82525050565b600081519050919050565b600082825260208201905092915050565b60005b8381101561247d578082015181840152602081019050612462565b8381111561248c576000848401525b50505050565b6000601f19601f8301169050919050565b60006124ae82612443565b6124b8818561244e565b93506124c881856020860161245f565b6124d181612492565b840191505092915050565b600081519050919050565b600082825260208201905092915050565b6000819050602082019050919050565b6000819050919050565b61251b81612508565b82525050565b6040820160008201516125376000850182612434565b50602082015161254a6020850182612512565b50505050565b600061255c8383612521565b60408301905092915050565b6000602082019050919050565b6000612580826124dc565b61258a81856124e7565b9350612595836124f8565b8060005b838110156125c65781516125ad8882612550565b97506125b883612568565b925050600181019050612599565b5085935050505092915050565b60006080830160008301516125eb6000860182612434565b506020830151848203602086015261260382826124a3565b9150506040830151848203604086015261261d82826124a3565b915050606083015184820360608601526126378282612575565b9150508091505092915050565b600061265083836125d3565b905092915050565b6000602082019050919050565b6000612670826123d6565b61267a81856123e1565b93508360208202850161268c856123f2565b8060005b858110156126c857848403895281516126a98582612644565b94506126b483612658565b925060208a01995050600181019050612690565b50829750879550505050505092915050565b600060208201905081810360008301526126f48184612665565b905092915050565b600081519050919050565b600082825260208201905092915050565b6000819050602082019050919050565b60006080830160008301516127406000860182612434565b5060208301516127536020860182612512565b506040830151848203604086015261276b82826124a3565b9150506060830151848203606086015261278582826124a3565b9150508091505092915050565b600061279e8383612728565b905092915050565b6000602082019050919050565b60006127be826126fc565b6127c88185612707565b9350836020820285016127da85612718565b8060005b8581101561281657848403895281516127f78582612792565b9450612802836127a6565b925060208a019950506001810190506127de565b50829750879550505050505092915050565b6000602082019050818103600083015261284281846127b3565b905092915050565b6000604051905090565b600080fd5b600080fd5b600080fd5b600080fd5b7f4e487b7100000000000000000000000000000000000000000000000000000000600052604160045260246000fd5b6128a082612492565b810181811067ffffffffffffffff821117156128bf576128be612868565b5b80604052505050565b60006128d261284a565b90506128de8282612897565b919050565b600067ffffffffffffffff8211156128fe576128fd612868565b5b61290782612492565b9050602081019050919050565b82818337600083830152505050565b6000612936612931846128e3565b6128c8565b90508281526020810184848401111561295257612951612863565b5b61295d848285612914565b509392505050565b600082601f83011261297a5761297961285e565b5b813561298a848260208601612923565b91505092915050565b6000602082840312156129a9576129a8612854565b5b600082013567ffffffffffffffff8111156129c7576129c6612859565b5b6129d384828501612965565b91505092915050565b60006129e782612402565b9050919050565b6129f7816129dc565b8114612a0257600080fd5b50565b600081359050612a14816129ee565b92915050565b60008060408385031215612a3157612a30612854565b5b600083013567ffffffffffffffff811115612a4f57612a4e612859565b5b612a5b85828601612965565b9250506020612a6c85828601612a05565b9150509250929050565b612a7f81612508565b8114612a8a57600080fd5b50565b600081359050612a9c81612a76565b92915050565b600060208284031215612ab857612ab7612854565b5b6000612ac684828501612a8d565b91505092915050565b612ad881612422565b82525050565b600082825260208201905092915050565b6000612afa82612443565b612b048185612ade565b9350612b1481856020860161245f565b612b1d81612492565b840191505092915050565b6000606082019050612b3d6000830186612acf565b8181036020830152612b4f8185612aef565b90508181036040830152612b638184612aef565b9050949350505050565b60008060408385031215612b8457612b83612854565b5b600083013567ffffffffffffffff811115612ba257612ba1612859565b5b612bae85828601612965565b925050602083013567ffffffffffffffff811115612bcf57612bce612859565b5b612bdb85828601612965565b9150509250929050565b7f4e487b7100000000000000000000000000000000000000000000000000000000600052602260045260246000fd5b60006002820490506001821680612c2c57607f821691505b60208210811415612c4057612c3f612be5565b5b50919050565b7f4e487b7100000000000000000000000000000000000000000000000000000000600052603260045260246000fd5b7f4e487b7100000000000000000000000000000000000000000000000000000000600052601160045260246000fd5b6000612caf82612508565b9150612cba83612508565b9250827fffffffffffffffffffffffffffffffffffffffffffffffffffffffffffffffff03821115612cef57612cee612c75565b5b828201905092915050565b6000612d0582612508565b91507fffffffffffffffffffffffffffffffffffffffffffffffffffffffffffffffff821415612d3857612d37612c75565b5b600182019050919050565b600081905092915050565b6000612d5982612443565b612d638185612d43565b9350612d7381856020860161245f565b80840191505092915050565b6000612d8b8284612d4e565b915081905092915050565b60008190508160005260206000209050919050565b60008154612db881612c14565b612dc28186612d43565b94506001821660008114612ddd5760018114612dee57612e21565b60ff19831686528186019350612e21565b612df785612d96565b60005b83811015612e1957815481890152600182019150602081019050612dfa565b838801955050505b50505092915050565b6000612e368284612dab565b915081905092915050565b7f50726f706f73616c206d7573742068617665206120706f73697469766520707260008201527f6963650000000000000000000000000000000000000000000000000000000000602082015250565b6000612e9d602383612ade565b9150612ea882612e41565b604082019050919050565b60006020820190508181036000830152612ecc81612e90565b9050919050565b60008160601b9050919050565b6000612eeb82612ed3565b9050919050565b6000612efd82612ee0565b9050919050565b612f15612f10826129dc565b612ef2565b82525050565b6000612f278284612f04565b60148201915081905092915050565b6000612f4182612ee0565b9050919050565b612f59612f5482612422565b612f36565b82525050565b6000612f6b8284612f48565b60148201915081905092915050565b7f596f7520616c72656164792073656e7420612070726f706f73616c20666f722060008201527f7468697320696d61676500000000000000000000000000000000000000000000602082015250565b6000612fd6602a83612ade565b9150612fe182612f7a565b604082019050919050565b6000602082019050818103600083015261300581612fc9565b9050919050565b7f496d616765206e6f7420666f756e640000000000000000000000000000000000600082015250565b6000613042600f83612ade565b915061304d8261300c565b602082019050919050565b6000602082019050818103600083015261307181613035565b9050919050565b7f4f6e6c7920746865206f776e65722063616e207265667573652070726f706f7360008201527f616c730000000000000000000000000000000000000000000000000000000000602082015250565b60006130d4602383612ade565b91506130df82613078565b604082019050919050565b60006020820190508181036000830152613103816130c7565b9050919050565b600061311582612508565b915061312083612508565b92508282101561313357613132612c75565b5b828203905092915050565b7f4e487b7100000000000000000000000000000000000000000000000000000000600052603160045260246000fd5b7f50726f706f73616c206e6f7420666f756e6420666f72207468697320696d616760008201527f6500000000000000000000000000000000000000000000000000000000000000602082015250565b60006131c9602183612ade565b91506131d48261316d565b604082019050919050565b600060208201905081810360008301526131f8816131bc565b9050919050565b7f4f6e6c7920746865206f776e65722063616e206163636570742070726f706f7360008201527f616c730000000000000000000000000000000000000000000000000000000000602082015250565b600061325b602383612ade565b9150613266826131ff565b604082019050919050565b6000602082019050818103600083015261328a8161324e565b9050919050565b7f4f6e6c7920746865206f776e65722063616e2064657374726f7920746865206360008201527f6f6e747261637400000000000000000000000000000000000000000000000000602082015250565b60006132ed602783612ade565b91506132f882613291565b604082019050919050565b6000602082019050818103600083015261331c816132e0565b9050919050565b60008160001c9050919050565b600073ffffffffffffffffffffffffffffffffffffffff82169050919050565b600061336361335e83613323565b613330565b9050919050565b6000815461337781612c14565b613381818661244e565b9450600182166000811461339c57600181146133ae576133e1565b60ff19831686526020860193506133e1565b6133b785612d96565b60005b838110156133d9578154818901526001820191506020810190506133ba565b808801955050505b50505092915050565b600081549050919050565b60008190508160005260206000209050919050565b6000819050919050565b600061342761342283613323565b61340a565b9050919050565b60408201600080830154905061344381613350565b6134506000860182612434565b506001830154905061346181613414565b61346e6020860182612512565b5050505050565b6000613481838361342e565b60408301905092915050565b6000600282019050919050565b60006134a5826133ea565b6134af81856124e7565b93506134ba836133f5565b8060005b838110156134ea57816134d18882613475565b97506134dc8361348d565b9250506001810190506134be565b5085935050505092915050565b600060808301600080840154905061350e81613350565b61351b6000870182612434565b50600184018583036020870152613532838261336a565b92505060028401858303604087015261354b838261336a565b925050600384018583036060870152613564838261349a565b925050819250505092915050565b6000602082019050818103600083015261358c81846134f7565b90509291505056fea2646970667358221220c1a9940a56d7b072e0e06062f066076f01eb9c4f477b20065702428f4753c45d64736f6c634300080b0033",
  "immutableReferences": {},
  "source": "// SPDX-License-Identifier: MIT\n// Nome: Joo Vtor Souto dos Santos\n// Nome: Rafael Silva Freire\n// Conta do contrato: 0x000000\n\n// Seu contrato comea aqui!\npragma solidity ^0.8.11;\n\ncontract Gallery {\n    struct Proposal {\n        address payable owner;\n        uint256 price;\n    }\n\n    struct ProposalImage {\n        address payable owner;\n        uint256 price;\n        string hash;\n        string name;\n    }\n\n    struct Image {\n        address payable owner;\n        string name;\n        string hash;\n        Proposal[] proposals;\n    }\n\n    event ImageUploaded(Image image);\n\n    Image[] public images;\n    address payable owner;\n\n    constructor() {\n        owner = payable(msg.sender);\n    }\n\n    function getProposalsByOwner()\n        public\n        view\n        returns (ProposalImage[] memory)\n    {\n        uint256 qntProposals = 0;\n        uint256 index = 0;\n\n        for (uint256 i = 0; i < images.length; i++) {\n            if (msg.sender == images[i].owner) {\n                qntProposals += images[i].proposals.length;\n            }\n        }\n\n        ProposalImage[] memory ownerProposals = new ProposalImage[](\n            qntProposals\n        );\n\n        for (uint256 i = 0; i < images.length; i++) {\n            if (msg.sender == images[i].owner) {\n                for (uint256 j = 0; j < images[i].proposals.length; j++) {\n                    ProposalImage memory proposal;\n                    proposal.owner = images[i].proposals[j].owner;\n                    proposal.price = images[i].proposals[j].price;\n                    proposal.hash = images[i].hash;\n                    proposal.name = images[i].name;\n                    ownerProposals[index] = proposal;\n                    index++;\n                }\n            }\n        }\n\n        return ownerProposals;\n    }\n\n    function getImages() public view returns (Image[] memory) {\n        return images;\n    }\n\n    function uploadImage(string memory name, string memory hash) public {\n        require(bytes(name).length > 0);\n        require(bytes(hash).length > 0);\n        require(msg.sender != address(0));\n\n        Image storage image = images.push();\n        image.owner = payable(msg.sender);\n        image.name = name;\n        image.hash = hash;\n\n        emit ImageUploaded(image);\n    }\n\n    function addProposal(string memory imageHash) public payable {\n        for (uint256 i = 0; i < images.length; i++) {\n            if (\n                keccak256(abi.encodePacked(images[i].hash)) ==\n                keccak256(abi.encodePacked(imageHash))\n            ) {\n                require(msg.sender != images[i].owner);\n                require(msg.value > 0, \"Proposal must have a positive price\");\n\n                for (uint256 j = 0; j < images[i].proposals.length; j++) {\n                    require(\n                        keccak256(\n                            abi.encodePacked(images[i].proposals[j].owner)\n                        ) != keccak256(abi.encodePacked(msg.sender)),\n                        \"You already sent a proposal for this image\"\n                    );\n                }\n\n                Proposal memory proposal = Proposal(\n                    payable(msg.sender),\n                    msg.value\n                );\n                images[i].proposals.push(proposal);\n\n                return;\n            }\n        }\n\n        require(false, \"Image not found\");\n    }\n\n    function removeProposal(string memory imageHash) public {\n        for (uint256 i = 0; i < images.length; i++) {\n            if (\n                keccak256(abi.encodePacked(images[i].hash)) ==\n                keccak256(abi.encodePacked(imageHash))\n            ) {\n                require(msg.sender != images[i].owner);\n\n                for (uint256 j = 0; j < images[i].proposals.length; j++) {\n                    if (\n                        keccak256(\n                            abi.encodePacked(images[i].proposals[j].owner)\n                        ) == keccak256(abi.encodePacked(msg.sender))\n                    ) {\n                        images[i].proposals[j].owner.transfer(\n                            images[i].proposals[j].price\n                        );\n                        images[i].proposals[j] = images[i].proposals[\n                            images[i].proposals.length - 1\n                        ];\n                        images[i].proposals.pop();\n                        return;\n                    }\n                }\n\n                require(false, \"Proposal not found for this image\");\n            }\n        }\n\n        require(false, \"Image not found\");\n    }\n\n    function acceptProposal(string memory imageHash, address proposalOwner)\n        public\n    {\n        for (uint256 i = 0; i < images.length; i++) {\n            if (\n                keccak256(abi.encodePacked(images[i].hash)) ==\n                keccak256(abi.encodePacked(imageHash))\n            ) {\n                require(\n                    msg.sender == images[i].owner,\n                    \"Only the owner can accept proposals\"\n                );\n\n                for (uint256 j = 0; j < images[i].proposals.length; j++) {\n                    if (\n                        keccak256(\n                            abi.encodePacked(images[i].proposals[j].owner)\n                        ) == keccak256(abi.encodePacked(proposalOwner))\n                    ) {\n                        payable(msg.sender).transfer(\n                            images[i].proposals[j].price\n                        );\n                        images[i].owner = images[i].proposals[j].owner;\n                        images[i].proposals[j] = images[i].proposals[\n                            images[i].proposals.length - 1\n                        ];\n                        images[i].proposals.pop();\n\n                        for (\n                            uint256 k = 0;\n                            k < images[i].proposals.length;\n                            k++\n                        ) {\n                            images[i].proposals[k].owner.transfer(\n                                images[i].proposals[k].price\n                            );\n                        }\n\n                        delete images[i].proposals;\n\n                        return;\n                    }\n                }\n\n                require(false, \"Proposal not found for this image\");\n            }\n        }\n\n        require(false, \"Image not found\");\n    }\n\n    function refuseProposal(string memory imageHash, address proposalOwner)\n        public\n    {\n        for (uint256 i = 0; i < images.length; i++) {\n            if (\n                keccak256(abi.encodePacked(images[i].hash)) ==\n                keccak256(abi.encodePacked(imageHash))\n            ) {\n                require(\n                    msg.sender == images[i].owner,\n                    \"Only the owner can refuse proposals\"\n                );\n\n                for (uint256 j = 0; j < images[i].proposals.length; j++) {\n                    if (\n                        keccak256(\n                            abi.encodePacked(images[i].proposals[j].owner)\n                        ) == keccak256(abi.encodePacked(proposalOwner))\n                    ) {\n                        images[i].proposals[j].owner.transfer(\n                            images[i].proposals[j].price\n                        );\n                        images[i].proposals[j] = images[i].proposals[\n                            images[i].proposals.length - 1\n                        ];\n                        images[i].proposals.pop();\n                        return;\n                    }\n                }\n\n                require(false, \"Proposal not found for this image\");\n            }\n        }\n\n        require(false, \"Image not found\");\n    }\n\n    function destroy() public {\n        require(msg.sender == owner, \"Only the owner can destroy the contract\");\n\n        selfdestruct(owner);\n    }\n}\n",
  "sourcePath": "/home/jv/Documents/BTI/6 Perodo/Blockchain/social-gallery-auction/src/contracts/Gallery.sol",
  "compiler": {
    "name": "solc",
    "version": "0.8.11+commit.d7f03943.Emscripten.clang"
  },
  "schemaVersion": "3.4.3",
  "updatedAt": "2022-02-06T16:17:18.915Z",
  "networkType": "ethereum",
  "devdoc": {
    "kind": "dev",
    "methods": {},
    "version": 1
  },
  "userdoc": {
    "kind": "user",
    "methods": {},
    "version": 1
  }
}